{
	"contract.sol": {
		"Compare": {
			"abi": [
				{
					"inputs": [],
					"stateMutability": "nonpayable",
					"type": "constructor"
				},
				{
					"inputs": [
						{
							"internalType": "uint256",
							"name": "_index",
							"type": "uint256"
						}
					],
					"name": "getMapVeriler",
					"outputs": [
						{
							"components": [
								{
									"internalType": "string",
									"name": "alici",
									"type": "string"
								},
								{
									"internalType": "string",
									"name": "verici",
									"type": "string"
								},
								{
									"internalType": "bytes32",
									"name": "aliciSha256",
									"type": "bytes32"
								},
								{
									"internalType": "bytes32",
									"name": "vericiSha256",
									"type": "bytes32"
								},
								{
									"internalType": "bytes32",
									"name": "eFaturaSha256",
									"type": "bytes32"
								},
								{
									"internalType": "bool",
									"name": "valid",
									"type": "bool"
								}
							],
							"internalType": "struct Compare.veriler",
							"name": "",
							"type": "tuple"
						}
					],
					"stateMutability": "view",
					"type": "function"
				},
				{
					"inputs": [],
					"name": "getMapVerilerCount",
					"outputs": [
						{
							"internalType": "uint256",
							"name": "",
							"type": "uint256"
						}
					],
					"stateMutability": "view",
					"type": "function"
				},
				{
					"inputs": [
						{
							"internalType": "uint256",
							"name": "_index",
							"type": "uint256"
						},
						{
							"internalType": "string",
							"name": "_alici",
							"type": "string"
						},
						{
							"internalType": "string",
							"name": "_verici",
							"type": "string"
						},
						{
							"internalType": "bytes32",
							"name": "_aliciSha256",
							"type": "bytes32"
						},
						{
							"internalType": "bytes32",
							"name": "_vericiSha256",
							"type": "bytes32"
						},
						{
							"internalType": "bytes32",
							"name": "_eFaturaSha256",
							"type": "bytes32"
						}
					],
					"name": "setMapVeriler",
					"outputs": [],
					"stateMutability": "nonpayable",
					"type": "function"
				}
			],
			"devdoc": {
				"kind": "dev",
				"methods": {},
				"version": 1
			},
			"evm": {
				"assembly": "    /* \"contract.sol\":75:1584  contract Compare {\r... */\n  mstore(0x40, 0x80)\n    /* \"contract.sol\":517:568  constructor() {\r... */\n  callvalue\n  dup1\n  iszero\n  tag_1\n  jumpi\n  0x00\n  dup1\n  revert\ntag_1:\n  pop\n    /* \"contract.sol\":550:560  msg.sender */\n  caller\n    /* \"contract.sol\":542:547  owner */\n  0x00\n  dup1\n    /* \"contract.sol\":542:560  owner = msg.sender */\n  0x0100\n  exp\n  dup2\n  sload\n  dup2\n  0xffffffffffffffffffffffffffffffffffffffff\n  mul\n  not\n  and\n  swap1\n  dup4\n  0xffffffffffffffffffffffffffffffffffffffff\n  and\n  mul\n  or\n  swap1\n  sstore\n  pop\n    /* \"contract.sol\":75:1584  contract Compare {\r... */\n  dataSize(sub_0)\n  dup1\n  dataOffset(sub_0)\n  0x00\n  codecopy\n  0x00\n  return\nstop\n\nsub_0: assembly {\n        /* \"contract.sol\":75:1584  contract Compare {\r... */\n      mstore(0x40, 0x80)\n      callvalue\n      dup1\n      iszero\n      tag_1\n      jumpi\n      0x00\n      dup1\n      revert\n    tag_1:\n      pop\n      jumpi(tag_2, lt(calldatasize, 0x04))\n      shr(0xe0, calldataload(0x00))\n      dup1\n      0x04438f0b\n      eq\n      tag_3\n      jumpi\n      dup1\n      0x4ae8ac57\n      eq\n      tag_4\n      jumpi\n      dup1\n      0x51d1d5f5\n      eq\n      tag_5\n      jumpi\n    tag_2:\n      0x00\n      dup1\n      revert\n        /* \"contract.sol\":576:728  function getMapVeriler(uint256 _index)\r... */\n    tag_3:\n      tag_6\n      0x04\n      dup1\n      calldatasize\n      sub\n      dup2\n      add\n      swap1\n      tag_7\n      swap2\n      swap1\n      tag_8\n      jump\t// in\n    tag_7:\n      tag_9\n      jump\t// in\n    tag_6:\n      mload(0x40)\n      tag_10\n      swap2\n      swap1\n      tag_11\n      jump\t// in\n    tag_10:\n      mload(0x40)\n      dup1\n      swap2\n      sub\n      swap1\n      return\n        /* \"contract.sol\":736:840  function getMapVerilerCount() public view returns (uint256) {\r... */\n    tag_4:\n      tag_12\n      tag_13\n      jump\t// in\n    tag_12:\n      mload(0x40)\n      tag_14\n      swap2\n      swap1\n      tag_15\n      jump\t// in\n    tag_14:\n      mload(0x40)\n      dup1\n      swap2\n      sub\n      swap1\n      return\n        /* \"contract.sol\":848:1581  function setMapVeriler(\r... */\n    tag_5:\n      tag_16\n      0x04\n      dup1\n      calldatasize\n      sub\n      dup2\n      add\n      swap1\n      tag_17\n      swap2\n      swap1\n      tag_18\n      jump\t// in\n    tag_17:\n      tag_19\n      jump\t// in\n    tag_16:\n      stop\n        /* \"contract.sol\":576:728  function getMapVeriler(uint256 _index)\r... */\n    tag_9:\n        /* \"contract.sol\":663:677  veriler memory */\n      tag_20\n      tag_21\n      jump\t// in\n    tag_20:\n        /* \"contract.sol\":702:712  mapVeriler */\n      0x02\n        /* \"contract.sol\":702:720  mapVeriler[_index] */\n      0x00\n        /* \"contract.sol\":713:719  _index */\n      dup4\n        /* \"contract.sol\":702:720  mapVeriler[_index] */\n      dup2\n      mstore\n      0x20\n      add\n      swap1\n      dup2\n      mstore\n      0x20\n      add\n      0x00\n      keccak256\n        /* \"contract.sol\":695:720  return mapVeriler[_index] */\n      mload(0x40)\n      dup1\n      0xc0\n      add\n      0x40\n      mstore\n      swap1\n      dup2\n      0x00\n      dup3\n      add\n      dup1\n      sload\n      tag_23\n      swap1\n      tag_24\n      jump\t// in\n    tag_23:\n      dup1\n      0x1f\n      add\n      0x20\n      dup1\n      swap2\n      div\n      mul\n      0x20\n      add\n      mload(0x40)\n      swap1\n      dup2\n      add\n      0x40\n      mstore\n      dup1\n      swap3\n      swap2\n      swap1\n      dup2\n      dup2\n      mstore\n      0x20\n      add\n      dup3\n      dup1\n      sload\n      tag_25\n      swap1\n      tag_24\n      jump\t// in\n    tag_25:\n      dup1\n      iszero\n      tag_26\n      jumpi\n      dup1\n      0x1f\n      lt\n      tag_27\n      jumpi\n      0x0100\n      dup1\n      dup4\n      sload\n      div\n      mul\n      dup4\n      mstore\n      swap2\n      0x20\n      add\n      swap2\n      jump(tag_26)\n    tag_27:\n      dup3\n      add\n      swap2\n      swap1\n      0x00\n      mstore\n      keccak256(0x00, 0x20)\n      swap1\n    tag_28:\n      dup2\n      sload\n      dup2\n      mstore\n      swap1\n      0x01\n      add\n      swap1\n      0x20\n      add\n      dup1\n      dup4\n      gt\n      tag_28\n      jumpi\n      dup3\n      swap1\n      sub\n      0x1f\n      and\n      dup3\n      add\n      swap2\n    tag_26:\n      pop\n      pop\n      pop\n      pop\n      pop\n      dup2\n      mstore\n      0x20\n      add\n      0x01\n      dup3\n      add\n      dup1\n      sload\n      tag_29\n      swap1\n      tag_24\n      jump\t// in\n    tag_29:\n      dup1\n      0x1f\n      add\n      0x20\n      dup1\n      swap2\n      div\n      mul\n      0x20\n      add\n      mload(0x40)\n      swap1\n      dup2\n      add\n      0x40\n      mstore\n      dup1\n      swap3\n      swap2\n      swap1\n      dup2\n      dup2\n      mstore\n      0x20\n      add\n      dup3\n      dup1\n      sload\n      tag_30\n      swap1\n      tag_24\n      jump\t// in\n    tag_30:\n      dup1\n      iszero\n      tag_31\n      jumpi\n      dup1\n      0x1f\n      lt\n      tag_32\n      jumpi\n      0x0100\n      dup1\n      dup4\n      sload\n      div\n      mul\n      dup4\n      mstore\n      swap2\n      0x20\n      add\n      swap2\n      jump(tag_31)\n    tag_32:\n      dup3\n      add\n      swap2\n      swap1\n      0x00\n      mstore\n      keccak256(0x00, 0x20)\n      swap1\n    tag_33:\n      dup2\n      sload\n      dup2\n      mstore\n      swap1\n      0x01\n      add\n      swap1\n      0x20\n      add\n      dup1\n      dup4\n      gt\n      tag_33\n      jumpi\n      dup3\n      swap1\n      sub\n      0x1f\n      and\n      dup3\n      add\n      swap2\n    tag_31:\n      pop\n      pop\n      pop\n      pop\n      pop\n      dup2\n      mstore\n      0x20\n      add\n      0x02\n      dup3\n      add\n      sload\n      dup2\n      mstore\n      0x20\n      add\n      0x03\n      dup3\n      add\n      sload\n      dup2\n      mstore\n      0x20\n      add\n      0x04\n      dup3\n      add\n      sload\n      dup2\n      mstore\n      0x20\n      add\n      0x05\n      dup3\n      add\n      0x00\n      swap1\n      sload\n      swap1\n      0x0100\n      exp\n      swap1\n      div\n      0xff\n      and\n      iszero\n      iszero\n      iszero\n      iszero\n      dup2\n      mstore\n      pop\n      pop\n      swap1\n      pop\n        /* \"contract.sol\":576:728  function getMapVeriler(uint256 _index)\r... */\n      swap2\n      swap1\n      pop\n      jump\t// out\n        /* \"contract.sol\":736:840  function getMapVerilerCount() public view returns (uint256) {\r... */\n    tag_13:\n        /* \"contract.sol\":787:794  uint256 */\n      0x00\n        /* \"contract.sol\":814:825  verilerList */\n      0x01\n        /* \"contract.sol\":814:832  verilerList.length */\n      dup1\n      sload\n      swap1\n      pop\n        /* \"contract.sol\":807:832  return verilerList.length */\n      swap1\n      pop\n        /* \"contract.sol\":736:840  function getMapVerilerCount() public view returns (uint256) {\r... */\n      swap1\n      jump\t// out\n        /* \"contract.sol\":848:1581  function setMapVeriler(\r... */\n    tag_19:\n        /* \"contract.sol\":452:457  owner */\n      0x00\n      dup1\n      sload\n      swap1\n      0x0100\n      exp\n      swap1\n      div\n      0xffffffffffffffffffffffffffffffffffffffff\n      and\n        /* \"contract.sol\":438:457  msg.sender == owner */\n      0xffffffffffffffffffffffffffffffffffffffff\n      and\n        /* \"contract.sol\":438:448  msg.sender */\n      caller\n        /* \"contract.sol\":438:457  msg.sender == owner */\n      0xffffffffffffffffffffffffffffffffffffffff\n      and\n      eq\n        /* \"contract.sol\":430:489  require(msg.sender == owner, \"Bu islem icin yetkiniz yok.\") */\n      tag_36\n      jumpi\n      mload(0x40)\n      0x08c379a000000000000000000000000000000000000000000000000000000000\n      dup2\n      mstore\n      0x04\n      add\n      tag_37\n      swap1\n      tag_38\n      jump\t// in\n    tag_37:\n      mload(0x40)\n      dup1\n      swap2\n      sub\n      swap1\n      revert\n    tag_36:\n        /* \"contract.sol\":1090:1115  veriler memory newVeriler */\n      tag_40\n      tag_21\n      jump\t// in\n    tag_40:\n        /* \"contract.sol\":1145:1151  _alici */\n      dup6\n        /* \"contract.sol\":1126:1136  newVeriler */\n      dup2\n        /* \"contract.sol\":1126:1142  newVeriler.alici */\n      0x00\n      add\n        /* \"contract.sol\":1126:1151  newVeriler.alici = _alici */\n      dup2\n      swap1\n      mstore\n      pop\n        /* \"contract.sol\":1182:1189  _verici */\n      dup5\n        /* \"contract.sol\":1162:1172  newVeriler */\n      dup2\n        /* \"contract.sol\":1162:1179  newVeriler.verici */\n      0x20\n      add\n        /* \"contract.sol\":1162:1189  newVeriler.verici = _verici */\n      dup2\n      swap1\n      mstore\n      pop\n        /* \"contract.sol\":1225:1237  _aliciSha256 */\n      dup4\n        /* \"contract.sol\":1200:1210  newVeriler */\n      dup2\n        /* \"contract.sol\":1200:1222  newVeriler.aliciSha256 */\n      0x40\n      add\n        /* \"contract.sol\":1200:1237  newVeriler.aliciSha256 = _aliciSha256 */\n      dup2\n      dup2\n      mstore\n      pop\n      pop\n        /* \"contract.sol\":1274:1287  _vericiSha256 */\n      dup3\n        /* \"contract.sol\":1248:1258  newVeriler */\n      dup2\n        /* \"contract.sol\":1248:1271  newVeriler.vericiSha256 */\n      0x60\n      add\n        /* \"contract.sol\":1248:1287  newVeriler.vericiSha256 = _vericiSha256 */\n      dup2\n      dup2\n      mstore\n      pop\n      pop\n        /* \"contract.sol\":1325:1339  _eFaturaSha256 */\n      dup2\n        /* \"contract.sol\":1298:1308  newVeriler */\n      dup2\n        /* \"contract.sol\":1298:1322  newVeriler.eFaturaSha256 */\n      0x80\n      add\n        /* \"contract.sol\":1298:1339  newVeriler.eFaturaSha256 = _eFaturaSha256 */\n      dup2\n      dup2\n      mstore\n      pop\n      pop\n        /* \"contract.sol\":1385:1398  _vericiSha256 */\n      dup3\n        /* \"contract.sol\":1369:1381  _aliciSha256 */\n      dup5\n        /* \"contract.sol\":1369:1398  _aliciSha256 == _vericiSha256 */\n      eq\n        /* \"contract.sol\":1368:1435  (_aliciSha256 == _vericiSha256) && (_aliciSha256 == _eFaturaSha256) */\n      dup1\n      iszero\n      tag_41\n      jumpi\n      pop\n        /* \"contract.sol\":1420:1434  _eFaturaSha256 */\n      dup2\n        /* \"contract.sol\":1404:1416  _aliciSha256 */\n      dup5\n        /* \"contract.sol\":1404:1434  _aliciSha256 == _eFaturaSha256 */\n      eq\n        /* \"contract.sol\":1368:1435  (_aliciSha256 == _vericiSha256) && (_aliciSha256 == _eFaturaSha256) */\n    tag_41:\n        /* \"contract.sol\":1350:1497  if (\r... */\n      iszero\n      tag_42\n      jumpi\n        /* \"contract.sol\":1481:1485  true */\n      0x01\n        /* \"contract.sol\":1462:1472  newVeriler */\n      dup2\n        /* \"contract.sol\":1462:1478  newVeriler.valid */\n      0xa0\n      add\n        /* \"contract.sol\":1462:1485  newVeriler.valid = true */\n      swap1\n      iszero\n      iszero\n      swap1\n      dup2\n      iszero\n      iszero\n      dup2\n      mstore\n      pop\n      pop\n        /* \"contract.sol\":1350:1497  if (\r... */\n    tag_42:\n        /* \"contract.sol\":1528:1538  newVeriler */\n      dup1\n        /* \"contract.sol\":1507:1517  mapVeriler */\n      0x02\n        /* \"contract.sol\":1507:1525  mapVeriler[_index] */\n      0x00\n        /* \"contract.sol\":1518:1524  _index */\n      dup10\n        /* \"contract.sol\":1507:1525  mapVeriler[_index] */\n      dup2\n      mstore\n      0x20\n      add\n      swap1\n      dup2\n      mstore\n      0x20\n      add\n      0x00\n      keccak256\n        /* \"contract.sol\":1507:1538  mapVeriler[_index] = newVeriler */\n      0x00\n      dup3\n      add\n      mload\n      dup2\n      0x00\n      add\n      swap1\n      dup1\n      mload\n      swap1\n      0x20\n      add\n      swap1\n      tag_43\n      swap3\n      swap2\n      swap1\n      tag_44\n      jump\t// in\n    tag_43:\n      pop\n      0x20\n      dup3\n      add\n      mload\n      dup2\n      0x01\n      add\n      swap1\n      dup1\n      mload\n      swap1\n      0x20\n      add\n      swap1\n      tag_45\n      swap3\n      swap2\n      swap1\n      tag_44\n      jump\t// in\n    tag_45:\n      pop\n      0x40\n      dup3\n      add\n      mload\n      dup2\n      0x02\n      add\n      sstore\n      0x60\n      dup3\n      add\n      mload\n      dup2\n      0x03\n      add\n      sstore\n      0x80\n      dup3\n      add\n      mload\n      dup2\n      0x04\n      add\n      sstore\n      0xa0\n      dup3\n      add\n      mload\n      dup2\n      0x05\n      add\n      exp(0x0100, 0x00)\n      dup2\n      sload\n      dup2\n      0xff\n      mul\n      not\n      and\n      swap1\n      dup4\n      iszero\n      iszero\n      mul\n      or\n      swap1\n      sstore\n      pop\n      swap1\n      pop\n      pop\n        /* \"contract.sol\":1549:1560  verilerList */\n      0x01\n        /* \"contract.sol\":1566:1572  _index */\n      dup8\n        /* \"contract.sol\":1549:1573  verilerList.push(_index) */\n      swap1\n      dup1\n      0x01\n      dup2\n      sload\n      add\n      dup1\n      dup3\n      sstore\n      dup1\n      swap2\n      pop\n      pop\n      0x01\n      swap1\n      sub\n      swap1\n      0x00\n      mstore\n      keccak256(0x00, 0x20)\n      add\n      0x00\n      swap1\n      swap2\n      swap1\n      swap2\n      swap1\n      swap2\n      pop\n      sstore\n        /* \"contract.sol\":500:501  _ */\n      pop\n        /* \"contract.sol\":848:1581  function setMapVeriler(\r... */\n      pop\n      pop\n      pop\n      pop\n      pop\n      pop\n      jump\t// out\n    tag_21:\n      mload(0x40)\n      dup1\n      0xc0\n      add\n      0x40\n      mstore\n      dup1\n      0x60\n      dup2\n      mstore\n      0x20\n      add\n      0x60\n      dup2\n      mstore\n      0x20\n      add\n      0x00\n      dup1\n      not\n      and\n      dup2\n      mstore\n      0x20\n      add\n      0x00\n      dup1\n      not\n      and\n      dup2\n      mstore\n      0x20\n      add\n      0x00\n      dup1\n      not\n      and\n      dup2\n      mstore\n      0x20\n      add\n      iszero(iszero(0x00))\n      dup2\n      mstore\n      pop\n      swap1\n      jump\t// out\n    tag_44:\n      dup3\n      dup1\n      sload\n      tag_47\n      swap1\n      tag_24\n      jump\t// in\n    tag_47:\n      swap1\n      0x00\n      mstore\n      keccak256(0x00, 0x20)\n      swap1\n      0x1f\n      add\n      0x20\n      swap1\n      div\n      dup2\n      add\n      swap3\n      dup3\n      tag_49\n      jumpi\n      0x00\n      dup6\n      sstore\n      jump(tag_48)\n    tag_49:\n      dup3\n      0x1f\n      lt\n      tag_50\n      jumpi\n      dup1\n      mload\n      not(0xff)\n      and\n      dup4\n      dup1\n      add\n      or\n      dup6\n      sstore\n      jump(tag_48)\n    tag_50:\n      dup3\n      dup1\n      add\n      0x01\n      add\n      dup6\n      sstore\n      dup3\n      iszero\n      tag_48\n      jumpi\n      swap2\n      dup3\n      add\n    tag_51:\n      dup3\n      dup2\n      gt\n      iszero\n      tag_52\n      jumpi\n      dup3\n      mload\n      dup3\n      sstore\n      swap2\n      0x20\n      add\n      swap2\n      swap1\n      0x01\n      add\n      swap1\n      jump(tag_51)\n    tag_52:\n    tag_48:\n      pop\n      swap1\n      pop\n      tag_53\n      swap2\n      swap1\n      tag_54\n      jump\t// in\n    tag_53:\n      pop\n      swap1\n      jump\t// out\n    tag_54:\n    tag_55:\n      dup1\n      dup3\n      gt\n      iszero\n      tag_56\n      jumpi\n      0x00\n      dup2\n      0x00\n      swap1\n      sstore\n      pop\n      0x01\n      add\n      jump(tag_55)\n    tag_56:\n      pop\n      swap1\n      jump\t// out\n        /* \"#utility.yul\":7:352   */\n    tag_58:\n        /* \"#utility.yul\":85:90   */\n      0x00\n        /* \"#utility.yul\":110:176   */\n      tag_60\n        /* \"#utility.yul\":126:175   */\n      tag_61\n        /* \"#utility.yul\":168:174   */\n      dup5\n        /* \"#utility.yul\":126:175   */\n      tag_62\n      jump\t// in\n    tag_61:\n        /* \"#utility.yul\":110:176   */\n      tag_63\n      jump\t// in\n    tag_60:\n        /* \"#utility.yul\":101:176   */\n      swap1\n      pop\n        /* \"#utility.yul\":199:205   */\n      dup3\n        /* \"#utility.yul\":192:197   */\n      dup2\n        /* \"#utility.yul\":185:206   */\n      mstore\n        /* \"#utility.yul\":237:241   */\n      0x20\n        /* \"#utility.yul\":230:235   */\n      dup2\n        /* \"#utility.yul\":226:242   */\n      add\n        /* \"#utility.yul\":275:278   */\n      dup5\n        /* \"#utility.yul\":266:272   */\n      dup5\n        /* \"#utility.yul\":261:264   */\n      dup5\n        /* \"#utility.yul\":257:273   */\n      add\n        /* \"#utility.yul\":254:279   */\n      gt\n        /* \"#utility.yul\":251:253   */\n      iszero\n      tag_64\n      jumpi\n        /* \"#utility.yul\":292:293   */\n      0x00\n        /* \"#utility.yul\":289:290   */\n      dup1\n        /* \"#utility.yul\":282:294   */\n      revert\n        /* \"#utility.yul\":251:253   */\n    tag_64:\n        /* \"#utility.yul\":305:346   */\n      tag_65\n        /* \"#utility.yul\":339:345   */\n      dup5\n        /* \"#utility.yul\":334:337   */\n      dup3\n        /* \"#utility.yul\":329:332   */\n      dup6\n        /* \"#utility.yul\":305:346   */\n      tag_66\n      jump\t// in\n    tag_65:\n        /* \"#utility.yul\":91:352   */\n      pop\n      swap4\n      swap3\n      pop\n      pop\n      pop\n      jump\t// out\n        /* \"#utility.yul\":358:497   */\n    tag_67:\n        /* \"#utility.yul\":404:409   */\n      0x00\n        /* \"#utility.yul\":442:448   */\n      dup2\n        /* \"#utility.yul\":429:449   */\n      calldataload\n        /* \"#utility.yul\":420:449   */\n      swap1\n      pop\n        /* \"#utility.yul\":458:491   */\n      tag_69\n        /* \"#utility.yul\":485:490   */\n      dup2\n        /* \"#utility.yul\":458:491   */\n      tag_70\n      jump\t// in\n    tag_69:\n        /* \"#utility.yul\":410:497   */\n      swap3\n      swap2\n      pop\n      pop\n      jump\t// out\n        /* \"#utility.yul\":517:790   */\n    tag_71:\n        /* \"#utility.yul\":573:578   */\n      0x00\n        /* \"#utility.yul\":622:625   */\n      dup3\n        /* \"#utility.yul\":615:619   */\n      0x1f\n        /* \"#utility.yul\":607:613   */\n      dup4\n        /* \"#utility.yul\":603:620   */\n      add\n        /* \"#utility.yul\":599:626   */\n      slt\n        /* \"#utility.yul\":589:591   */\n      tag_73\n      jumpi\n        /* \"#utility.yul\":640:641   */\n      0x00\n        /* \"#utility.yul\":637:638   */\n      dup1\n        /* \"#utility.yul\":630:642   */\n      revert\n        /* \"#utility.yul\":589:591   */\n    tag_73:\n        /* \"#utility.yul\":680:686   */\n      dup2\n        /* \"#utility.yul\":667:687   */\n      calldataload\n        /* \"#utility.yul\":705:784   */\n      tag_74\n        /* \"#utility.yul\":780:783   */\n      dup5\n        /* \"#utility.yul\":772:778   */\n      dup3\n        /* \"#utility.yul\":765:769   */\n      0x20\n        /* \"#utility.yul\":757:763   */\n      dup7\n        /* \"#utility.yul\":753:770   */\n      add\n        /* \"#utility.yul\":705:784   */\n      tag_58\n      jump\t// in\n    tag_74:\n        /* \"#utility.yul\":696:784   */\n      swap2\n      pop\n        /* \"#utility.yul\":579:790   */\n      pop\n      swap3\n      swap2\n      pop\n      pop\n      jump\t// out\n        /* \"#utility.yul\":796:935   */\n    tag_75:\n        /* \"#utility.yul\":842:847   */\n      0x00\n        /* \"#utility.yul\":880:886   */\n      dup2\n        /* \"#utility.yul\":867:887   */\n      calldataload\n        /* \"#utility.yul\":858:887   */\n      swap1\n      pop\n        /* \"#utility.yul\":896:929   */\n      tag_77\n        /* \"#utility.yul\":923:928   */\n      dup2\n        /* \"#utility.yul\":896:929   */\n      tag_78\n      jump\t// in\n    tag_77:\n        /* \"#utility.yul\":848:935   */\n      swap3\n      swap2\n      pop\n      pop\n      jump\t// out\n        /* \"#utility.yul\":941:1203   */\n    tag_8:\n        /* \"#utility.yul\":1000:1006   */\n      0x00\n        /* \"#utility.yul\":1049:1051   */\n      0x20\n        /* \"#utility.yul\":1037:1046   */\n      dup3\n        /* \"#utility.yul\":1028:1035   */\n      dup5\n        /* \"#utility.yul\":1024:1047   */\n      sub\n        /* \"#utility.yul\":1020:1052   */\n      slt\n        /* \"#utility.yul\":1017:1019   */\n      iszero\n      tag_80\n      jumpi\n        /* \"#utility.yul\":1065:1066   */\n      0x00\n        /* \"#utility.yul\":1062:1063   */\n      dup1\n        /* \"#utility.yul\":1055:1067   */\n      revert\n        /* \"#utility.yul\":1017:1019   */\n    tag_80:\n        /* \"#utility.yul\":1108:1109   */\n      0x00\n        /* \"#utility.yul\":1133:1186   */\n      tag_81\n        /* \"#utility.yul\":1178:1185   */\n      dup5\n        /* \"#utility.yul\":1169:1175   */\n      dup3\n        /* \"#utility.yul\":1158:1167   */\n      dup6\n        /* \"#utility.yul\":1154:1176   */\n      add\n        /* \"#utility.yul\":1133:1186   */\n      tag_75\n      jump\t// in\n    tag_81:\n        /* \"#utility.yul\":1123:1186   */\n      swap2\n      pop\n        /* \"#utility.yul\":1079:1196   */\n      pop\n        /* \"#utility.yul\":1007:1203   */\n      swap3\n      swap2\n      pop\n      pop\n      jump\t// out\n        /* \"#utility.yul\":1209:2425   */\n    tag_18:\n        /* \"#utility.yul\":1333:1339   */\n      0x00\n        /* \"#utility.yul\":1341:1347   */\n      dup1\n        /* \"#utility.yul\":1349:1355   */\n      0x00\n        /* \"#utility.yul\":1357:1363   */\n      dup1\n        /* \"#utility.yul\":1365:1371   */\n      0x00\n        /* \"#utility.yul\":1373:1379   */\n      dup1\n        /* \"#utility.yul\":1422:1425   */\n      0xc0\n        /* \"#utility.yul\":1410:1419   */\n      dup8\n        /* \"#utility.yul\":1401:1408   */\n      dup10\n        /* \"#utility.yul\":1397:1420   */\n      sub\n        /* \"#utility.yul\":1393:1426   */\n      slt\n        /* \"#utility.yul\":1390:1392   */\n      iszero\n      tag_83\n      jumpi\n        /* \"#utility.yul\":1439:1440   */\n      0x00\n        /* \"#utility.yul\":1436:1437   */\n      dup1\n        /* \"#utility.yul\":1429:1441   */\n      revert\n        /* \"#utility.yul\":1390:1392   */\n    tag_83:\n        /* \"#utility.yul\":1482:1483   */\n      0x00\n        /* \"#utility.yul\":1507:1560   */\n      tag_84\n        /* \"#utility.yul\":1552:1559   */\n      dup10\n        /* \"#utility.yul\":1543:1549   */\n      dup3\n        /* \"#utility.yul\":1532:1541   */\n      dup11\n        /* \"#utility.yul\":1528:1550   */\n      add\n        /* \"#utility.yul\":1507:1560   */\n      tag_75\n      jump\t// in\n    tag_84:\n        /* \"#utility.yul\":1497:1560   */\n      swap7\n      pop\n        /* \"#utility.yul\":1453:1570   */\n      pop\n        /* \"#utility.yul\":1637:1639   */\n      0x20\n        /* \"#utility.yul\":1626:1635   */\n      dup8\n        /* \"#utility.yul\":1622:1640   */\n      add\n        /* \"#utility.yul\":1609:1641   */\n      calldataload\n        /* \"#utility.yul\":1668:1686   */\n      0xffffffffffffffff\n        /* \"#utility.yul\":1660:1666   */\n      dup2\n        /* \"#utility.yul\":1657:1687   */\n      gt\n        /* \"#utility.yul\":1654:1656   */\n      iszero\n      tag_85\n      jumpi\n        /* \"#utility.yul\":1700:1701   */\n      0x00\n        /* \"#utility.yul\":1697:1698   */\n      dup1\n        /* \"#utility.yul\":1690:1702   */\n      revert\n        /* \"#utility.yul\":1654:1656   */\n    tag_85:\n        /* \"#utility.yul\":1728:1791   */\n      tag_86\n        /* \"#utility.yul\":1783:1790   */\n      dup10\n        /* \"#utility.yul\":1774:1780   */\n      dup3\n        /* \"#utility.yul\":1763:1772   */\n      dup11\n        /* \"#utility.yul\":1759:1781   */\n      add\n        /* \"#utility.yul\":1728:1791   */\n      tag_71\n      jump\t// in\n    tag_86:\n        /* \"#utility.yul\":1718:1791   */\n      swap6\n      pop\n        /* \"#utility.yul\":1580:1801   */\n      pop\n        /* \"#utility.yul\":1868:1870   */\n      0x40\n        /* \"#utility.yul\":1857:1866   */\n      dup8\n        /* \"#utility.yul\":1853:1871   */\n      add\n        /* \"#utility.yul\":1840:1872   */\n      calldataload\n        /* \"#utility.yul\":1899:1917   */\n      0xffffffffffffffff\n        /* \"#utility.yul\":1891:1897   */\n      dup2\n        /* \"#utility.yul\":1888:1918   */\n      gt\n        /* \"#utility.yul\":1885:1887   */\n      iszero\n      tag_87\n      jumpi\n        /* \"#utility.yul\":1931:1932   */\n      0x00\n        /* \"#utility.yul\":1928:1929   */\n      dup1\n        /* \"#utility.yul\":1921:1933   */\n      revert\n        /* \"#utility.yul\":1885:1887   */\n    tag_87:\n        /* \"#utility.yul\":1959:2022   */\n      tag_88\n        /* \"#utility.yul\":2014:2021   */\n      dup10\n        /* \"#utility.yul\":2005:2011   */\n      dup3\n        /* \"#utility.yul\":1994:2003   */\n      dup11\n        /* \"#utility.yul\":1990:2012   */\n      add\n        /* \"#utility.yul\":1959:2022   */\n      tag_71\n      jump\t// in\n    tag_88:\n        /* \"#utility.yul\":1949:2022   */\n      swap5\n      pop\n        /* \"#utility.yul\":1811:2032   */\n      pop\n        /* \"#utility.yul\":2071:2073   */\n      0x60\n        /* \"#utility.yul\":2097:2150   */\n      tag_89\n        /* \"#utility.yul\":2142:2149   */\n      dup10\n        /* \"#utility.yul\":2133:2139   */\n      dup3\n        /* \"#utility.yul\":2122:2131   */\n      dup11\n        /* \"#utility.yul\":2118:2140   */\n      add\n        /* \"#utility.yul\":2097:2150   */\n      tag_67\n      jump\t// in\n    tag_89:\n        /* \"#utility.yul\":2087:2150   */\n      swap4\n      pop\n        /* \"#utility.yul\":2042:2160   */\n      pop\n        /* \"#utility.yul\":2199:2202   */\n      0x80\n        /* \"#utility.yul\":2226:2279   */\n      tag_90\n        /* \"#utility.yul\":2271:2278   */\n      dup10\n        /* \"#utility.yul\":2262:2268   */\n      dup3\n        /* \"#utility.yul\":2251:2260   */\n      dup11\n        /* \"#utility.yul\":2247:2269   */\n      add\n        /* \"#utility.yul\":2226:2279   */\n      tag_67\n      jump\t// in\n    tag_90:\n        /* \"#utility.yul\":2216:2279   */\n      swap3\n      pop\n        /* \"#utility.yul\":2170:2289   */\n      pop\n        /* \"#utility.yul\":2328:2331   */\n      0xa0\n        /* \"#utility.yul\":2355:2408   */\n      tag_91\n        /* \"#utility.yul\":2400:2407   */\n      dup10\n        /* \"#utility.yul\":2391:2397   */\n      dup3\n        /* \"#utility.yul\":2380:2389   */\n      dup11\n        /* \"#utility.yul\":2376:2398   */\n      add\n        /* \"#utility.yul\":2355:2408   */\n      tag_67\n      jump\t// in\n    tag_91:\n        /* \"#utility.yul\":2345:2408   */\n      swap2\n      pop\n        /* \"#utility.yul\":2299:2418   */\n      pop\n        /* \"#utility.yul\":1380:2425   */\n      swap3\n      swap6\n      pop\n      swap3\n      swap6\n      pop\n      swap3\n      swap6\n      jump\t// out\n        /* \"#utility.yul\":2431:2530   */\n    tag_92:\n        /* \"#utility.yul\":2502:2523   */\n      tag_94\n        /* \"#utility.yul\":2517:2522   */\n      dup2\n        /* \"#utility.yul\":2502:2523   */\n      tag_95\n      jump\t// in\n    tag_94:\n        /* \"#utility.yul\":2497:2500   */\n      dup3\n        /* \"#utility.yul\":2490:2524   */\n      mstore\n        /* \"#utility.yul\":2480:2530   */\n      pop\n      pop\n      jump\t// out\n        /* \"#utility.yul\":2536:2644   */\n    tag_96:\n        /* \"#utility.yul\":2613:2637   */\n      tag_98\n        /* \"#utility.yul\":2631:2636   */\n      dup2\n        /* \"#utility.yul\":2613:2637   */\n      tag_99\n      jump\t// in\n    tag_98:\n        /* \"#utility.yul\":2608:2611   */\n      dup3\n        /* \"#utility.yul\":2601:2638   */\n      mstore\n        /* \"#utility.yul\":2591:2644   */\n      pop\n      pop\n      jump\t// out\n        /* \"#utility.yul\":2650:2994   */\n    tag_100:\n        /* \"#utility.yul\":2728:2731   */\n      0x00\n        /* \"#utility.yul\":2756:2795   */\n      tag_102\n        /* \"#utility.yul\":2789:2794   */\n      dup3\n        /* \"#utility.yul\":2756:2795   */\n      tag_103\n      jump\t// in\n    tag_102:\n        /* \"#utility.yul\":2811:2872   */\n      tag_104\n        /* \"#utility.yul\":2865:2871   */\n      dup2\n        /* \"#utility.yul\":2860:2863   */\n      dup6\n        /* \"#utility.yul\":2811:2872   */\n      tag_105\n      jump\t// in\n    tag_104:\n        /* \"#utility.yul\":2804:2872   */\n      swap4\n      pop\n        /* \"#utility.yul\":2881:2933   */\n      tag_106\n        /* \"#utility.yul\":2926:2932   */\n      dup2\n        /* \"#utility.yul\":2921:2924   */\n      dup6\n        /* \"#utility.yul\":2914:2918   */\n      0x20\n        /* \"#utility.yul\":2907:2912   */\n      dup7\n        /* \"#utility.yul\":2903:2919   */\n      add\n        /* \"#utility.yul\":2881:2933   */\n      tag_107\n      jump\t// in\n    tag_106:\n        /* \"#utility.yul\":2958:2987   */\n      tag_108\n        /* \"#utility.yul\":2980:2986   */\n      dup2\n        /* \"#utility.yul\":2958:2987   */\n      tag_109\n      jump\t// in\n    tag_108:\n        /* \"#utility.yul\":2953:2956   */\n      dup5\n        /* \"#utility.yul\":2949:2988   */\n      add\n        /* \"#utility.yul\":2942:2988   */\n      swap2\n      pop\n        /* \"#utility.yul\":2732:2994   */\n      pop\n      swap3\n      swap2\n      pop\n      pop\n      jump\t// out\n        /* \"#utility.yul\":3000:3366   */\n    tag_110:\n        /* \"#utility.yul\":3142:3145   */\n      0x00\n        /* \"#utility.yul\":3163:3230   */\n      tag_112\n        /* \"#utility.yul\":3227:3229   */\n      0x1b\n        /* \"#utility.yul\":3222:3225   */\n      dup4\n        /* \"#utility.yul\":3163:3230   */\n      tag_113\n      jump\t// in\n    tag_112:\n        /* \"#utility.yul\":3156:3230   */\n      swap2\n      pop\n        /* \"#utility.yul\":3239:3332   */\n      tag_114\n        /* \"#utility.yul\":3328:3331   */\n      dup3\n        /* \"#utility.yul\":3239:3332   */\n      tag_115\n      jump\t// in\n    tag_114:\n        /* \"#utility.yul\":3357:3359   */\n      0x20\n        /* \"#utility.yul\":3352:3355   */\n      dup3\n        /* \"#utility.yul\":3348:3360   */\n      add\n        /* \"#utility.yul\":3341:3360   */\n      swap1\n      pop\n        /* \"#utility.yul\":3146:3366   */\n      swap2\n      swap1\n      pop\n      jump\t// out\n        /* \"#utility.yul\":3428:4819   */\n    tag_116:\n        /* \"#utility.yul\":3543:3546   */\n      0x00\n        /* \"#utility.yul\":3579:3583   */\n      0xc0\n        /* \"#utility.yul\":3574:3577   */\n      dup4\n        /* \"#utility.yul\":3570:3584   */\n      add\n        /* \"#utility.yul\":3667:3671   */\n      0x00\n        /* \"#utility.yul\":3660:3665   */\n      dup4\n        /* \"#utility.yul\":3656:3672   */\n      add\n        /* \"#utility.yul\":3650:3673   */\n      mload\n        /* \"#utility.yul\":3720:3723   */\n      dup5\n        /* \"#utility.yul\":3714:3718   */\n      dup3\n        /* \"#utility.yul\":3710:3724   */\n      sub\n        /* \"#utility.yul\":3703:3707   */\n      0x00\n        /* \"#utility.yul\":3698:3701   */\n      dup7\n        /* \"#utility.yul\":3694:3708   */\n      add\n        /* \"#utility.yul\":3687:3725   */\n      mstore\n        /* \"#utility.yul\":3746:3819   */\n      tag_118\n        /* \"#utility.yul\":3814:3818   */\n      dup3\n        /* \"#utility.yul\":3800:3812   */\n      dup3\n        /* \"#utility.yul\":3746:3819   */\n      tag_100\n      jump\t// in\n    tag_118:\n        /* \"#utility.yul\":3738:3819   */\n      swap2\n      pop\n        /* \"#utility.yul\":3594:3830   */\n      pop\n        /* \"#utility.yul\":3914:3918   */\n      0x20\n        /* \"#utility.yul\":3907:3912   */\n      dup4\n        /* \"#utility.yul\":3903:3919   */\n      add\n        /* \"#utility.yul\":3897:3920   */\n      mload\n        /* \"#utility.yul\":3967:3970   */\n      dup5\n        /* \"#utility.yul\":3961:3965   */\n      dup3\n        /* \"#utility.yul\":3957:3971   */\n      sub\n        /* \"#utility.yul\":3950:3954   */\n      0x20\n        /* \"#utility.yul\":3945:3948   */\n      dup7\n        /* \"#utility.yul\":3941:3955   */\n      add\n        /* \"#utility.yul\":3934:3972   */\n      mstore\n        /* \"#utility.yul\":3993:4066   */\n      tag_119\n        /* \"#utility.yul\":4061:4065   */\n      dup3\n        /* \"#utility.yul\":4047:4059   */\n      dup3\n        /* \"#utility.yul\":3993:4066   */\n      tag_100\n      jump\t// in\n    tag_119:\n        /* \"#utility.yul\":3985:4066   */\n      swap2\n      pop\n        /* \"#utility.yul\":3840:4077   */\n      pop\n        /* \"#utility.yul\":4166:4170   */\n      0x40\n        /* \"#utility.yul\":4159:4164   */\n      dup4\n        /* \"#utility.yul\":4155:4171   */\n      add\n        /* \"#utility.yul\":4149:4172   */\n      mload\n        /* \"#utility.yul\":4185:4248   */\n      tag_120\n        /* \"#utility.yul\":4242:4246   */\n      0x40\n        /* \"#utility.yul\":4237:4240   */\n      dup7\n        /* \"#utility.yul\":4233:4247   */\n      add\n        /* \"#utility.yul\":4219:4231   */\n      dup3\n        /* \"#utility.yul\":4185:4248   */\n      tag_96\n      jump\t// in\n    tag_120:\n        /* \"#utility.yul\":4087:4258   */\n      pop\n        /* \"#utility.yul\":4348:4352   */\n      0x60\n        /* \"#utility.yul\":4341:4346   */\n      dup4\n        /* \"#utility.yul\":4337:4353   */\n      add\n        /* \"#utility.yul\":4331:4354   */\n      mload\n        /* \"#utility.yul\":4367:4430   */\n      tag_121\n        /* \"#utility.yul\":4424:4428   */\n      0x60\n        /* \"#utility.yul\":4419:4422   */\n      dup7\n        /* \"#utility.yul\":4415:4429   */\n      add\n        /* \"#utility.yul\":4401:4413   */\n      dup3\n        /* \"#utility.yul\":4367:4430   */\n      tag_96\n      jump\t// in\n    tag_121:\n        /* \"#utility.yul\":4268:4440   */\n      pop\n        /* \"#utility.yul\":4531:4535   */\n      0x80\n        /* \"#utility.yul\":4524:4529   */\n      dup4\n        /* \"#utility.yul\":4520:4536   */\n      add\n        /* \"#utility.yul\":4514:4537   */\n      mload\n        /* \"#utility.yul\":4550:4613   */\n      tag_122\n        /* \"#utility.yul\":4607:4611   */\n      0x80\n        /* \"#utility.yul\":4602:4605   */\n      dup7\n        /* \"#utility.yul\":4598:4612   */\n      add\n        /* \"#utility.yul\":4584:4596   */\n      dup3\n        /* \"#utility.yul\":4550:4613   */\n      tag_96\n      jump\t// in\n    tag_122:\n        /* \"#utility.yul\":4450:4623   */\n      pop\n        /* \"#utility.yul\":4706:4710   */\n      0xa0\n        /* \"#utility.yul\":4699:4704   */\n      dup4\n        /* \"#utility.yul\":4695:4711   */\n      add\n        /* \"#utility.yul\":4689:4712   */\n      mload\n        /* \"#utility.yul\":4725:4782   */\n      tag_123\n        /* \"#utility.yul\":4776:4780   */\n      0xa0\n        /* \"#utility.yul\":4771:4774   */\n      dup7\n        /* \"#utility.yul\":4767:4781   */\n      add\n        /* \"#utility.yul\":4753:4765   */\n      dup3\n        /* \"#utility.yul\":4725:4782   */\n      tag_92\n      jump\t// in\n    tag_123:\n        /* \"#utility.yul\":4633:4792   */\n      pop\n        /* \"#utility.yul\":4809:4813   */\n      dup1\n        /* \"#utility.yul\":4802:4813   */\n      swap2\n      pop\n        /* \"#utility.yul\":3548:4819   */\n      pop\n      swap3\n      swap2\n      pop\n      pop\n      jump\t// out\n        /* \"#utility.yul\":4825:4943   */\n    tag_124:\n        /* \"#utility.yul\":4912:4936   */\n      tag_126\n        /* \"#utility.yul\":4930:4935   */\n      dup2\n        /* \"#utility.yul\":4912:4936   */\n      tag_127\n      jump\t// in\n    tag_126:\n        /* \"#utility.yul\":4907:4910   */\n      dup3\n        /* \"#utility.yul\":4900:4937   */\n      mstore\n        /* \"#utility.yul\":4890:4943   */\n      pop\n      pop\n      jump\t// out\n        /* \"#utility.yul\":4949:5368   */\n    tag_38:\n        /* \"#utility.yul\":5115:5119   */\n      0x00\n        /* \"#utility.yul\":5153:5155   */\n      0x20\n        /* \"#utility.yul\":5142:5151   */\n      dup3\n        /* \"#utility.yul\":5138:5156   */\n      add\n        /* \"#utility.yul\":5130:5156   */\n      swap1\n      pop\n        /* \"#utility.yul\":5202:5211   */\n      dup2\n        /* \"#utility.yul\":5196:5200   */\n      dup2\n        /* \"#utility.yul\":5192:5212   */\n      sub\n        /* \"#utility.yul\":5188:5189   */\n      0x00\n        /* \"#utility.yul\":5177:5186   */\n      dup4\n        /* \"#utility.yul\":5173:5190   */\n      add\n        /* \"#utility.yul\":5166:5213   */\n      mstore\n        /* \"#utility.yul\":5230:5361   */\n      tag_129\n        /* \"#utility.yul\":5356:5360   */\n      dup2\n        /* \"#utility.yul\":5230:5361   */\n      tag_110\n      jump\t// in\n    tag_129:\n        /* \"#utility.yul\":5222:5361   */\n      swap1\n      pop\n        /* \"#utility.yul\":5120:5368   */\n      swap2\n      swap1\n      pop\n      jump\t// out\n        /* \"#utility.yul\":5374:5739   */\n    tag_11:\n        /* \"#utility.yul\":5513:5517   */\n      0x00\n        /* \"#utility.yul\":5551:5553   */\n      0x20\n        /* \"#utility.yul\":5540:5549   */\n      dup3\n        /* \"#utility.yul\":5536:5554   */\n      add\n        /* \"#utility.yul\":5528:5554   */\n      swap1\n      pop\n        /* \"#utility.yul\":5600:5609   */\n      dup2\n        /* \"#utility.yul\":5594:5598   */\n      dup2\n        /* \"#utility.yul\":5590:5610   */\n      sub\n        /* \"#utility.yul\":5586:5587   */\n      0x00\n        /* \"#utility.yul\":5575:5584   */\n      dup4\n        /* \"#utility.yul\":5571:5588   */\n      add\n        /* \"#utility.yul\":5564:5611   */\n      mstore\n        /* \"#utility.yul\":5628:5732   */\n      tag_131\n        /* \"#utility.yul\":5727:5731   */\n      dup2\n        /* \"#utility.yul\":5718:5724   */\n      dup5\n        /* \"#utility.yul\":5628:5732   */\n      tag_116\n      jump\t// in\n    tag_131:\n        /* \"#utility.yul\":5620:5732   */\n      swap1\n      pop\n        /* \"#utility.yul\":5518:5739   */\n      swap3\n      swap2\n      pop\n      pop\n      jump\t// out\n        /* \"#utility.yul\":5745:5967   */\n    tag_15:\n        /* \"#utility.yul\":5838:5842   */\n      0x00\n        /* \"#utility.yul\":5876:5878   */\n      0x20\n        /* \"#utility.yul\":5865:5874   */\n      dup3\n        /* \"#utility.yul\":5861:5879   */\n      add\n        /* \"#utility.yul\":5853:5879   */\n      swap1\n      pop\n        /* \"#utility.yul\":5889:5960   */\n      tag_133\n        /* \"#utility.yul\":5957:5958   */\n      0x00\n        /* \"#utility.yul\":5946:5955   */\n      dup4\n        /* \"#utility.yul\":5942:5959   */\n      add\n        /* \"#utility.yul\":5933:5939   */\n      dup5\n        /* \"#utility.yul\":5889:5960   */\n      tag_124\n      jump\t// in\n    tag_133:\n        /* \"#utility.yul\":5843:5967   */\n      swap3\n      swap2\n      pop\n      pop\n      jump\t// out\n        /* \"#utility.yul\":5973:6102   */\n    tag_63:\n        /* \"#utility.yul\":6007:6013   */\n      0x00\n        /* \"#utility.yul\":6034:6054   */\n      tag_135\n      tag_136\n      jump\t// in\n    tag_135:\n        /* \"#utility.yul\":6024:6054   */\n      swap1\n      pop\n        /* \"#utility.yul\":6063:6096   */\n      tag_137\n        /* \"#utility.yul\":6091:6095   */\n      dup3\n        /* \"#utility.yul\":6083:6089   */\n      dup3\n        /* \"#utility.yul\":6063:6096   */\n      tag_138\n      jump\t// in\n    tag_137:\n        /* \"#utility.yul\":6014:6102   */\n      swap2\n      swap1\n      pop\n      jump\t// out\n        /* \"#utility.yul\":6108:6183   */\n    tag_136:\n        /* \"#utility.yul\":6141:6147   */\n      0x00\n        /* \"#utility.yul\":6174:6176   */\n      0x40\n        /* \"#utility.yul\":6168:6177   */\n      mload\n        /* \"#utility.yul\":6158:6177   */\n      swap1\n      pop\n        /* \"#utility.yul\":6148:6183   */\n      swap1\n      jump\t// out\n        /* \"#utility.yul\":6189:6497   */\n    tag_62:\n        /* \"#utility.yul\":6251:6255   */\n      0x00\n        /* \"#utility.yul\":6341:6359   */\n      0xffffffffffffffff\n        /* \"#utility.yul\":6333:6339   */\n      dup3\n        /* \"#utility.yul\":6330:6360   */\n      gt\n        /* \"#utility.yul\":6327:6329   */\n      iszero\n      tag_141\n      jumpi\n        /* \"#utility.yul\":6363:6381   */\n      tag_142\n      tag_143\n      jump\t// in\n    tag_142:\n        /* \"#utility.yul\":6327:6329   */\n    tag_141:\n        /* \"#utility.yul\":6401:6430   */\n      tag_144\n        /* \"#utility.yul\":6423:6429   */\n      dup3\n        /* \"#utility.yul\":6401:6430   */\n      tag_109\n      jump\t// in\n    tag_144:\n        /* \"#utility.yul\":6393:6430   */\n      swap1\n      pop\n        /* \"#utility.yul\":6485:6489   */\n      0x20\n        /* \"#utility.yul\":6479:6483   */\n      dup2\n        /* \"#utility.yul\":6475:6490   */\n      add\n        /* \"#utility.yul\":6467:6490   */\n      swap1\n      pop\n        /* \"#utility.yul\":6256:6497   */\n      swap2\n      swap1\n      pop\n      jump\t// out\n        /* \"#utility.yul\":6503:6602   */\n    tag_103:\n        /* \"#utility.yul\":6555:6561   */\n      0x00\n        /* \"#utility.yul\":6589:6594   */\n      dup2\n        /* \"#utility.yul\":6583:6595   */\n      mload\n        /* \"#utility.yul\":6573:6595   */\n      swap1\n      pop\n        /* \"#utility.yul\":6562:6602   */\n      swap2\n      swap1\n      pop\n      jump\t// out\n        /* \"#utility.yul\":6608:6767   */\n    tag_105:\n        /* \"#utility.yul\":6682:6693   */\n      0x00\n        /* \"#utility.yul\":6716:6722   */\n      dup3\n        /* \"#utility.yul\":6711:6714   */\n      dup3\n        /* \"#utility.yul\":6704:6723   */\n      mstore\n        /* \"#utility.yul\":6756:6760   */\n      0x20\n        /* \"#utility.yul\":6751:6754   */\n      dup3\n        /* \"#utility.yul\":6747:6761   */\n      add\n        /* \"#utility.yul\":6732:6761   */\n      swap1\n      pop\n        /* \"#utility.yul\":6694:6767   */\n      swap3\n      swap2\n      pop\n      pop\n      jump\t// out\n        /* \"#utility.yul\":6773:6942   */\n    tag_113:\n        /* \"#utility.yul\":6857:6868   */\n      0x00\n        /* \"#utility.yul\":6891:6897   */\n      dup3\n        /* \"#utility.yul\":6886:6889   */\n      dup3\n        /* \"#utility.yul\":6879:6898   */\n      mstore\n        /* \"#utility.yul\":6931:6935   */\n      0x20\n        /* \"#utility.yul\":6926:6929   */\n      dup3\n        /* \"#utility.yul\":6922:6936   */\n      add\n        /* \"#utility.yul\":6907:6936   */\n      swap1\n      pop\n        /* \"#utility.yul\":6869:6942   */\n      swap3\n      swap2\n      pop\n      pop\n      jump\t// out\n        /* \"#utility.yul\":6948:7038   */\n    tag_95:\n        /* \"#utility.yul\":6982:6989   */\n      0x00\n        /* \"#utility.yul\":7025:7030   */\n      dup2\n        /* \"#utility.yul\":7018:7031   */\n      iszero\n        /* \"#utility.yul\":7011:7032   */\n      iszero\n        /* \"#utility.yul\":7000:7032   */\n      swap1\n      pop\n        /* \"#utility.yul\":6990:7038   */\n      swap2\n      swap1\n      pop\n      jump\t// out\n        /* \"#utility.yul\":7044:7121   */\n    tag_99:\n        /* \"#utility.yul\":7081:7088   */\n      0x00\n        /* \"#utility.yul\":7110:7115   */\n      dup2\n        /* \"#utility.yul\":7099:7115   */\n      swap1\n      pop\n        /* \"#utility.yul\":7089:7121   */\n      swap2\n      swap1\n      pop\n      jump\t// out\n        /* \"#utility.yul\":7127:7204   */\n    tag_127:\n        /* \"#utility.yul\":7164:7171   */\n      0x00\n        /* \"#utility.yul\":7193:7198   */\n      dup2\n        /* \"#utility.yul\":7182:7198   */\n      swap1\n      pop\n        /* \"#utility.yul\":7172:7204   */\n      swap2\n      swap1\n      pop\n      jump\t// out\n        /* \"#utility.yul\":7210:7364   */\n    tag_66:\n        /* \"#utility.yul\":7294:7300   */\n      dup3\n        /* \"#utility.yul\":7289:7292   */\n      dup2\n        /* \"#utility.yul\":7284:7287   */\n      dup4\n        /* \"#utility.yul\":7271:7301   */\n      calldatacopy\n        /* \"#utility.yul\":7356:7357   */\n      0x00\n        /* \"#utility.yul\":7347:7353   */\n      dup4\n        /* \"#utility.yul\":7342:7345   */\n      dup4\n        /* \"#utility.yul\":7338:7354   */\n      add\n        /* \"#utility.yul\":7331:7358   */\n      mstore\n        /* \"#utility.yul\":7261:7364   */\n      pop\n      pop\n      pop\n      jump\t// out\n        /* \"#utility.yul\":7370:7677   */\n    tag_107:\n        /* \"#utility.yul\":7438:7439   */\n      0x00\n        /* \"#utility.yul\":7448:7561   */\n    tag_153:\n        /* \"#utility.yul\":7462:7468   */\n      dup4\n        /* \"#utility.yul\":7459:7460   */\n      dup2\n        /* \"#utility.yul\":7456:7469   */\n      lt\n        /* \"#utility.yul\":7448:7561   */\n      iszero\n      tag_155\n      jumpi\n        /* \"#utility.yul\":7547:7548   */\n      dup1\n        /* \"#utility.yul\":7542:7545   */\n      dup3\n        /* \"#utility.yul\":7538:7549   */\n      add\n        /* \"#utility.yul\":7532:7550   */\n      mload\n        /* \"#utility.yul\":7528:7529   */\n      dup2\n        /* \"#utility.yul\":7523:7526   */\n      dup5\n        /* \"#utility.yul\":7519:7530   */\n      add\n        /* \"#utility.yul\":7512:7551   */\n      mstore\n        /* \"#utility.yul\":7484:7486   */\n      0x20\n        /* \"#utility.yul\":7481:7482   */\n      dup2\n        /* \"#utility.yul\":7477:7487   */\n      add\n        /* \"#utility.yul\":7472:7487   */\n      swap1\n      pop\n        /* \"#utility.yul\":7448:7561   */\n      jump(tag_153)\n    tag_155:\n        /* \"#utility.yul\":7579:7585   */\n      dup4\n        /* \"#utility.yul\":7576:7577   */\n      dup2\n        /* \"#utility.yul\":7573:7586   */\n      gt\n        /* \"#utility.yul\":7570:7572   */\n      iszero\n      tag_156\n      jumpi\n        /* \"#utility.yul\":7659:7660   */\n      0x00\n        /* \"#utility.yul\":7650:7656   */\n      dup5\n        /* \"#utility.yul\":7645:7648   */\n      dup5\n        /* \"#utility.yul\":7641:7657   */\n      add\n        /* \"#utility.yul\":7634:7661   */\n      mstore\n        /* \"#utility.yul\":7570:7572   */\n    tag_156:\n        /* \"#utility.yul\":7419:7677   */\n      pop\n      pop\n      pop\n      pop\n      jump\t// out\n        /* \"#utility.yul\":7683:8003   */\n    tag_24:\n        /* \"#utility.yul\":7727:7733   */\n      0x00\n        /* \"#utility.yul\":7764:7765   */\n      0x02\n        /* \"#utility.yul\":7758:7762   */\n      dup3\n        /* \"#utility.yul\":7754:7766   */\n      div\n        /* \"#utility.yul\":7744:7766   */\n      swap1\n      pop\n        /* \"#utility.yul\":7811:7812   */\n      0x01\n        /* \"#utility.yul\":7805:7809   */\n      dup3\n        /* \"#utility.yul\":7801:7813   */\n      and\n        /* \"#utility.yul\":7832:7850   */\n      dup1\n        /* \"#utility.yul\":7822:7824   */\n      tag_158\n      jumpi\n        /* \"#utility.yul\":7888:7892   */\n      0x7f\n        /* \"#utility.yul\":7880:7886   */\n      dup3\n        /* \"#utility.yul\":7876:7893   */\n      and\n        /* \"#utility.yul\":7866:7893   */\n      swap2\n      pop\n        /* \"#utility.yul\":7822:7824   */\n    tag_158:\n        /* \"#utility.yul\":7950:7952   */\n      0x20\n        /* \"#utility.yul\":7942:7948   */\n      dup3\n        /* \"#utility.yul\":7939:7953   */\n      lt\n        /* \"#utility.yul\":7919:7937   */\n      dup2\n        /* \"#utility.yul\":7916:7954   */\n      eq\n        /* \"#utility.yul\":7913:7915   */\n      iszero\n      tag_159\n      jumpi\n        /* \"#utility.yul\":7969:7987   */\n      tag_160\n      tag_161\n      jump\t// in\n    tag_160:\n        /* \"#utility.yul\":7913:7915   */\n    tag_159:\n        /* \"#utility.yul\":7734:8003   */\n      pop\n      swap2\n      swap1\n      pop\n      jump\t// out\n        /* \"#utility.yul\":8009:8290   */\n    tag_138:\n        /* \"#utility.yul\":8092:8119   */\n      tag_163\n        /* \"#utility.yul\":8114:8118   */\n      dup3\n        /* \"#utility.yul\":8092:8119   */\n      tag_109\n      jump\t// in\n    tag_163:\n        /* \"#utility.yul\":8084:8090   */\n      dup2\n        /* \"#utility.yul\":8080:8120   */\n      add\n        /* \"#utility.yul\":8222:8228   */\n      dup2\n        /* \"#utility.yul\":8210:8220   */\n      dup2\n        /* \"#utility.yul\":8207:8229   */\n      lt\n        /* \"#utility.yul\":8186:8204   */\n      0xffffffffffffffff\n        /* \"#utility.yul\":8174:8184   */\n      dup3\n        /* \"#utility.yul\":8171:8205   */\n      gt\n        /* \"#utility.yul\":8168:8230   */\n      or\n        /* \"#utility.yul\":8165:8167   */\n      iszero\n      tag_164\n      jumpi\n        /* \"#utility.yul\":8233:8251   */\n      tag_165\n      tag_143\n      jump\t// in\n    tag_165:\n        /* \"#utility.yul\":8165:8167   */\n    tag_164:\n        /* \"#utility.yul\":8273:8283   */\n      dup1\n        /* \"#utility.yul\":8269:8271   */\n      0x40\n        /* \"#utility.yul\":8262:8284   */\n      mstore\n        /* \"#utility.yul\":8052:8290   */\n      pop\n      pop\n      pop\n      jump\t// out\n        /* \"#utility.yul\":8296:8476   */\n    tag_161:\n        /* \"#utility.yul\":8344:8421   */\n      0x4e487b7100000000000000000000000000000000000000000000000000000000\n        /* \"#utility.yul\":8341:8342   */\n      0x00\n        /* \"#utility.yul\":8334:8422   */\n      mstore\n        /* \"#utility.yul\":8441:8445   */\n      0x22\n        /* \"#utility.yul\":8438:8439   */\n      0x04\n        /* \"#utility.yul\":8431:8446   */\n      mstore\n        /* \"#utility.yul\":8465:8469   */\n      0x24\n        /* \"#utility.yul\":8462:8463   */\n      0x00\n        /* \"#utility.yul\":8455:8470   */\n      revert\n        /* \"#utility.yul\":8482:8662   */\n    tag_143:\n        /* \"#utility.yul\":8530:8607   */\n      0x4e487b7100000000000000000000000000000000000000000000000000000000\n        /* \"#utility.yul\":8527:8528   */\n      0x00\n        /* \"#utility.yul\":8520:8608   */\n      mstore\n        /* \"#utility.yul\":8627:8631   */\n      0x41\n        /* \"#utility.yul\":8624:8625   */\n      0x04\n        /* \"#utility.yul\":8617:8632   */\n      mstore\n        /* \"#utility.yul\":8651:8655   */\n      0x24\n        /* \"#utility.yul\":8648:8649   */\n      0x00\n        /* \"#utility.yul\":8641:8656   */\n      revert\n        /* \"#utility.yul\":8668:8770   */\n    tag_109:\n        /* \"#utility.yul\":8709:8715   */\n      0x00\n        /* \"#utility.yul\":8760:8762   */\n      0x1f\n        /* \"#utility.yul\":8756:8763   */\n      not\n        /* \"#utility.yul\":8751:8753   */\n      0x1f\n        /* \"#utility.yul\":8744:8749   */\n      dup4\n        /* \"#utility.yul\":8740:8754   */\n      add\n        /* \"#utility.yul\":8736:8764   */\n      and\n        /* \"#utility.yul\":8726:8764   */\n      swap1\n      pop\n        /* \"#utility.yul\":8716:8770   */\n      swap2\n      swap1\n      pop\n      jump\t// out\n        /* \"#utility.yul\":8776:8953   */\n    tag_115:\n        /* \"#utility.yul\":8916:8945   */\n      0x42752069736c656d206963696e207965746b696e697a20796f6b2e0000000000\n        /* \"#utility.yul\":8912:8913   */\n      0x00\n        /* \"#utility.yul\":8904:8910   */\n      dup3\n        /* \"#utility.yul\":8900:8914   */\n      add\n        /* \"#utility.yul\":8893:8946   */\n      mstore\n        /* \"#utility.yul\":8882:8953   */\n      pop\n      jump\t// out\n        /* \"#utility.yul\":8959:9081   */\n    tag_70:\n        /* \"#utility.yul\":9032:9056   */\n      tag_171\n        /* \"#utility.yul\":9050:9055   */\n      dup2\n        /* \"#utility.yul\":9032:9056   */\n      tag_99\n      jump\t// in\n    tag_171:\n        /* \"#utility.yul\":9025:9030   */\n      dup2\n        /* \"#utility.yul\":9022:9057   */\n      eq\n        /* \"#utility.yul\":9012:9014   */\n      tag_172\n      jumpi\n        /* \"#utility.yul\":9071:9072   */\n      0x00\n        /* \"#utility.yul\":9068:9069   */\n      dup1\n        /* \"#utility.yul\":9061:9073   */\n      revert\n        /* \"#utility.yul\":9012:9014   */\n    tag_172:\n        /* \"#utility.yul\":9002:9081   */\n      pop\n      jump\t// out\n        /* \"#utility.yul\":9087:9209   */\n    tag_78:\n        /* \"#utility.yul\":9160:9184   */\n      tag_174\n        /* \"#utility.yul\":9178:9183   */\n      dup2\n        /* \"#utility.yul\":9160:9184   */\n      tag_127\n      jump\t// in\n    tag_174:\n        /* \"#utility.yul\":9153:9158   */\n      dup2\n        /* \"#utility.yul\":9150:9185   */\n      eq\n        /* \"#utility.yul\":9140:9142   */\n      tag_175\n      jumpi\n        /* \"#utility.yul\":9199:9200   */\n      0x00\n        /* \"#utility.yul\":9196:9197   */\n      dup1\n        /* \"#utility.yul\":9189:9201   */\n      revert\n        /* \"#utility.yul\":9140:9142   */\n    tag_175:\n        /* \"#utility.yul\":9130:9209   */\n      pop\n      jump\t// out\n\n    auxdata: 0xa26469706673582212208bde3b58d0c1716ccc33cfcd2ba36330e8150dde592729273869337d992ecfc164736f6c63430008040033\n}\n",
				"bytecode": {
					"linkReferences": {},
					"object": "608060405234801561001057600080fd5b50336000806101000a81548173ffffffffffffffffffffffffffffffffffffffff021916908373ffffffffffffffffffffffffffffffffffffffff160217905550610a05806100606000396000f3fe608060405234801561001057600080fd5b50600436106100415760003560e01c806304438f0b146100465780634ae8ac571461007657806351d1d5f514610094575b600080fd5b610060600480360381019061005b9190610569565b6100b0565b60405161006d9190610784565b60405180910390f35b61007e61023a565b60405161008b91906107a6565b60405180910390f35b6100ae60048036038101906100a99190610592565b610247565b005b6100b86103f3565b600260008381526020019081526020016000206040518060c00160405290816000820180546100e6906108a6565b80601f0160208091040260200160405190810160405280929190818152602001828054610112906108a6565b801561015f5780601f106101345761010080835404028352916020019161015f565b820191906000526020600020905b81548152906001019060200180831161014257829003601f168201915b50505050508152602001600182018054610178906108a6565b80601f01602080910402602001604051908101604052809291908181526020018280546101a4906108a6565b80156101f15780601f106101c6576101008083540402835291602001916101f1565b820191906000526020600020905b8154815290600101906020018083116101d457829003601f168201915b505050505081526020016002820154815260200160038201548152602001600482015481526020016005820160009054906101000a900460ff1615151515815250509050919050565b6000600180549050905090565b60008054906101000a900473ffffffffffffffffffffffffffffffffffffffff1673ffffffffffffffffffffffffffffffffffffffff163373ffffffffffffffffffffffffffffffffffffffff16146102d5576040517f08c379a00000000000000000000000000000000000000000000000000000000081526004016102cc90610764565b60405180910390fd5b6102dd6103f3565b858160000181905250848160200181905250838160400181815250508281606001818152505081816080018181525050828414801561031b57508184145b156103325760018160a00190151590811515815250505b80600260008981526020019081526020016000206000820151816000019080519060200190610362929190610434565b50602082015181600101908051906020019061037f929190610434565b5060408201518160020155606082015181600301556080820151816004015560a08201518160050160006101000a81548160ff021916908315150217905550905050600187908060018154018082558091505060019003906000526020600020016000909190919091505550505050505050565b6040518060c0016040528060608152602001606081526020016000801916815260200160008019168152602001600080191681526020016000151581525090565b828054610440906108a6565b90600052602060002090601f01602090048101928261046257600085556104a9565b82601f1061047b57805160ff19168380011785556104a9565b828001600101855582156104a9579182015b828111156104a857825182559160200191906001019061048d565b5b5090506104b691906104ba565b5090565b5b808211156104d35760008160009055506001016104bb565b5090565b60006104ea6104e5846107e6565b6107c1565b90508281526020810184848401111561050257600080fd5b61050d848285610864565b509392505050565b600081359050610524816109a1565b92915050565b600082601f83011261053b57600080fd5b813561054b8482602086016104d7565b91505092915050565b600081359050610563816109b8565b92915050565b60006020828403121561057b57600080fd5b600061058984828501610554565b91505092915050565b60008060008060008060c087890312156105ab57600080fd5b60006105b989828a01610554565b965050602087013567ffffffffffffffff8111156105d657600080fd5b6105e289828a0161052a565b955050604087013567ffffffffffffffff8111156105ff57600080fd5b61060b89828a0161052a565b945050606061061c89828a01610515565b935050608061062d89828a01610515565b92505060a061063e89828a01610515565b9150509295509295509295565b61065481610844565b82525050565b61066381610850565b82525050565b600061067482610817565b61067e8185610822565b935061068e818560208601610873565b61069781610967565b840191505092915050565b60006106af601b83610833565b91506106ba82610978565b602082019050919050565b600060c08301600083015184820360008601526106e28282610669565b915050602083015184820360208601526106fc8282610669565b9150506040830151610711604086018261065a565b506060830151610724606086018261065a565b506080830151610737608086018261065a565b5060a083015161074a60a086018261064b565b508091505092915050565b61075e8161085a565b82525050565b6000602082019050818103600083015261077d816106a2565b9050919050565b6000602082019050818103600083015261079e81846106c5565b905092915050565b60006020820190506107bb6000830184610755565b92915050565b60006107cb6107dc565b90506107d782826108d8565b919050565b6000604051905090565b600067ffffffffffffffff82111561080157610800610938565b5b61080a82610967565b9050602081019050919050565b600081519050919050565b600082825260208201905092915050565b600082825260208201905092915050565b60008115159050919050565b6000819050919050565b6000819050919050565b82818337600083830152505050565b60005b83811015610891578082015181840152602081019050610876565b838111156108a0576000848401525b50505050565b600060028204905060018216806108be57607f821691505b602082108114156108d2576108d1610909565b5b50919050565b6108e182610967565b810181811067ffffffffffffffff82111715610900576108ff610938565b5b80604052505050565b7f4e487b7100000000000000000000000000000000000000000000000000000000600052602260045260246000fd5b7f4e487b7100000000000000000000000000000000000000000000000000000000600052604160045260246000fd5b6000601f19601f8301169050919050565b7f42752069736c656d206963696e207965746b696e697a20796f6b2e0000000000600082015250565b6109aa81610850565b81146109b557600080fd5b50565b6109c18161085a565b81146109cc57600080fd5b5056fea26469706673582212208bde3b58d0c1716ccc33cfcd2ba36330e8150dde592729273869337d992ecfc164736f6c63430008040033",
					"opcodes": "PUSH1 0x80 PUSH1 0x40 MSTORE CALLVALUE DUP1 ISZERO PUSH2 0x10 JUMPI PUSH1 0x0 DUP1 REVERT JUMPDEST POP CALLER PUSH1 0x0 DUP1 PUSH2 0x100 EXP DUP2 SLOAD DUP2 PUSH20 0xFFFFFFFFFFFFFFFFFFFFFFFFFFFFFFFFFFFFFFFF MUL NOT AND SWAP1 DUP4 PUSH20 0xFFFFFFFFFFFFFFFFFFFFFFFFFFFFFFFFFFFFFFFF AND MUL OR SWAP1 SSTORE POP PUSH2 0xA05 DUP1 PUSH2 0x60 PUSH1 0x0 CODECOPY PUSH1 0x0 RETURN INVALID PUSH1 0x80 PUSH1 0x40 MSTORE CALLVALUE DUP1 ISZERO PUSH2 0x10 JUMPI PUSH1 0x0 DUP1 REVERT JUMPDEST POP PUSH1 0x4 CALLDATASIZE LT PUSH2 0x41 JUMPI PUSH1 0x0 CALLDATALOAD PUSH1 0xE0 SHR DUP1 PUSH4 0x4438F0B EQ PUSH2 0x46 JUMPI DUP1 PUSH4 0x4AE8AC57 EQ PUSH2 0x76 JUMPI DUP1 PUSH4 0x51D1D5F5 EQ PUSH2 0x94 JUMPI JUMPDEST PUSH1 0x0 DUP1 REVERT JUMPDEST PUSH2 0x60 PUSH1 0x4 DUP1 CALLDATASIZE SUB DUP2 ADD SWAP1 PUSH2 0x5B SWAP2 SWAP1 PUSH2 0x569 JUMP JUMPDEST PUSH2 0xB0 JUMP JUMPDEST PUSH1 0x40 MLOAD PUSH2 0x6D SWAP2 SWAP1 PUSH2 0x784 JUMP JUMPDEST PUSH1 0x40 MLOAD DUP1 SWAP2 SUB SWAP1 RETURN JUMPDEST PUSH2 0x7E PUSH2 0x23A JUMP JUMPDEST PUSH1 0x40 MLOAD PUSH2 0x8B SWAP2 SWAP1 PUSH2 0x7A6 JUMP JUMPDEST PUSH1 0x40 MLOAD DUP1 SWAP2 SUB SWAP1 RETURN JUMPDEST PUSH2 0xAE PUSH1 0x4 DUP1 CALLDATASIZE SUB DUP2 ADD SWAP1 PUSH2 0xA9 SWAP2 SWAP1 PUSH2 0x592 JUMP JUMPDEST PUSH2 0x247 JUMP JUMPDEST STOP JUMPDEST PUSH2 0xB8 PUSH2 0x3F3 JUMP JUMPDEST PUSH1 0x2 PUSH1 0x0 DUP4 DUP2 MSTORE PUSH1 0x20 ADD SWAP1 DUP2 MSTORE PUSH1 0x20 ADD PUSH1 0x0 KECCAK256 PUSH1 0x40 MLOAD DUP1 PUSH1 0xC0 ADD PUSH1 0x40 MSTORE SWAP1 DUP2 PUSH1 0x0 DUP3 ADD DUP1 SLOAD PUSH2 0xE6 SWAP1 PUSH2 0x8A6 JUMP JUMPDEST DUP1 PUSH1 0x1F ADD PUSH1 0x20 DUP1 SWAP2 DIV MUL PUSH1 0x20 ADD PUSH1 0x40 MLOAD SWAP1 DUP2 ADD PUSH1 0x40 MSTORE DUP1 SWAP3 SWAP2 SWAP1 DUP2 DUP2 MSTORE PUSH1 0x20 ADD DUP3 DUP1 SLOAD PUSH2 0x112 SWAP1 PUSH2 0x8A6 JUMP JUMPDEST DUP1 ISZERO PUSH2 0x15F JUMPI DUP1 PUSH1 0x1F LT PUSH2 0x134 JUMPI PUSH2 0x100 DUP1 DUP4 SLOAD DIV MUL DUP4 MSTORE SWAP2 PUSH1 0x20 ADD SWAP2 PUSH2 0x15F JUMP JUMPDEST DUP3 ADD SWAP2 SWAP1 PUSH1 0x0 MSTORE PUSH1 0x20 PUSH1 0x0 KECCAK256 SWAP1 JUMPDEST DUP2 SLOAD DUP2 MSTORE SWAP1 PUSH1 0x1 ADD SWAP1 PUSH1 0x20 ADD DUP1 DUP4 GT PUSH2 0x142 JUMPI DUP3 SWAP1 SUB PUSH1 0x1F AND DUP3 ADD SWAP2 JUMPDEST POP POP POP POP POP DUP2 MSTORE PUSH1 0x20 ADD PUSH1 0x1 DUP3 ADD DUP1 SLOAD PUSH2 0x178 SWAP1 PUSH2 0x8A6 JUMP JUMPDEST DUP1 PUSH1 0x1F ADD PUSH1 0x20 DUP1 SWAP2 DIV MUL PUSH1 0x20 ADD PUSH1 0x40 MLOAD SWAP1 DUP2 ADD PUSH1 0x40 MSTORE DUP1 SWAP3 SWAP2 SWAP1 DUP2 DUP2 MSTORE PUSH1 0x20 ADD DUP3 DUP1 SLOAD PUSH2 0x1A4 SWAP1 PUSH2 0x8A6 JUMP JUMPDEST DUP1 ISZERO PUSH2 0x1F1 JUMPI DUP1 PUSH1 0x1F LT PUSH2 0x1C6 JUMPI PUSH2 0x100 DUP1 DUP4 SLOAD DIV MUL DUP4 MSTORE SWAP2 PUSH1 0x20 ADD SWAP2 PUSH2 0x1F1 JUMP JUMPDEST DUP3 ADD SWAP2 SWAP1 PUSH1 0x0 MSTORE PUSH1 0x20 PUSH1 0x0 KECCAK256 SWAP1 JUMPDEST DUP2 SLOAD DUP2 MSTORE SWAP1 PUSH1 0x1 ADD SWAP1 PUSH1 0x20 ADD DUP1 DUP4 GT PUSH2 0x1D4 JUMPI DUP3 SWAP1 SUB PUSH1 0x1F AND DUP3 ADD SWAP2 JUMPDEST POP POP POP POP POP DUP2 MSTORE PUSH1 0x20 ADD PUSH1 0x2 DUP3 ADD SLOAD DUP2 MSTORE PUSH1 0x20 ADD PUSH1 0x3 DUP3 ADD SLOAD DUP2 MSTORE PUSH1 0x20 ADD PUSH1 0x4 DUP3 ADD SLOAD DUP2 MSTORE PUSH1 0x20 ADD PUSH1 0x5 DUP3 ADD PUSH1 0x0 SWAP1 SLOAD SWAP1 PUSH2 0x100 EXP SWAP1 DIV PUSH1 0xFF AND ISZERO ISZERO ISZERO ISZERO DUP2 MSTORE POP POP SWAP1 POP SWAP2 SWAP1 POP JUMP JUMPDEST PUSH1 0x0 PUSH1 0x1 DUP1 SLOAD SWAP1 POP SWAP1 POP SWAP1 JUMP JUMPDEST PUSH1 0x0 DUP1 SLOAD SWAP1 PUSH2 0x100 EXP SWAP1 DIV PUSH20 0xFFFFFFFFFFFFFFFFFFFFFFFFFFFFFFFFFFFFFFFF AND PUSH20 0xFFFFFFFFFFFFFFFFFFFFFFFFFFFFFFFFFFFFFFFF AND CALLER PUSH20 0xFFFFFFFFFFFFFFFFFFFFFFFFFFFFFFFFFFFFFFFF AND EQ PUSH2 0x2D5 JUMPI PUSH1 0x40 MLOAD PUSH32 0x8C379A000000000000000000000000000000000000000000000000000000000 DUP2 MSTORE PUSH1 0x4 ADD PUSH2 0x2CC SWAP1 PUSH2 0x764 JUMP JUMPDEST PUSH1 0x40 MLOAD DUP1 SWAP2 SUB SWAP1 REVERT JUMPDEST PUSH2 0x2DD PUSH2 0x3F3 JUMP JUMPDEST DUP6 DUP2 PUSH1 0x0 ADD DUP2 SWAP1 MSTORE POP DUP5 DUP2 PUSH1 0x20 ADD DUP2 SWAP1 MSTORE POP DUP4 DUP2 PUSH1 0x40 ADD DUP2 DUP2 MSTORE POP POP DUP3 DUP2 PUSH1 0x60 ADD DUP2 DUP2 MSTORE POP POP DUP2 DUP2 PUSH1 0x80 ADD DUP2 DUP2 MSTORE POP POP DUP3 DUP5 EQ DUP1 ISZERO PUSH2 0x31B JUMPI POP DUP2 DUP5 EQ JUMPDEST ISZERO PUSH2 0x332 JUMPI PUSH1 0x1 DUP2 PUSH1 0xA0 ADD SWAP1 ISZERO ISZERO SWAP1 DUP2 ISZERO ISZERO DUP2 MSTORE POP POP JUMPDEST DUP1 PUSH1 0x2 PUSH1 0x0 DUP10 DUP2 MSTORE PUSH1 0x20 ADD SWAP1 DUP2 MSTORE PUSH1 0x20 ADD PUSH1 0x0 KECCAK256 PUSH1 0x0 DUP3 ADD MLOAD DUP2 PUSH1 0x0 ADD SWAP1 DUP1 MLOAD SWAP1 PUSH1 0x20 ADD SWAP1 PUSH2 0x362 SWAP3 SWAP2 SWAP1 PUSH2 0x434 JUMP JUMPDEST POP PUSH1 0x20 DUP3 ADD MLOAD DUP2 PUSH1 0x1 ADD SWAP1 DUP1 MLOAD SWAP1 PUSH1 0x20 ADD SWAP1 PUSH2 0x37F SWAP3 SWAP2 SWAP1 PUSH2 0x434 JUMP JUMPDEST POP PUSH1 0x40 DUP3 ADD MLOAD DUP2 PUSH1 0x2 ADD SSTORE PUSH1 0x60 DUP3 ADD MLOAD DUP2 PUSH1 0x3 ADD SSTORE PUSH1 0x80 DUP3 ADD MLOAD DUP2 PUSH1 0x4 ADD SSTORE PUSH1 0xA0 DUP3 ADD MLOAD DUP2 PUSH1 0x5 ADD PUSH1 0x0 PUSH2 0x100 EXP DUP2 SLOAD DUP2 PUSH1 0xFF MUL NOT AND SWAP1 DUP4 ISZERO ISZERO MUL OR SWAP1 SSTORE POP SWAP1 POP POP PUSH1 0x1 DUP8 SWAP1 DUP1 PUSH1 0x1 DUP2 SLOAD ADD DUP1 DUP3 SSTORE DUP1 SWAP2 POP POP PUSH1 0x1 SWAP1 SUB SWAP1 PUSH1 0x0 MSTORE PUSH1 0x20 PUSH1 0x0 KECCAK256 ADD PUSH1 0x0 SWAP1 SWAP2 SWAP1 SWAP2 SWAP1 SWAP2 POP SSTORE POP POP POP POP POP POP POP JUMP JUMPDEST PUSH1 0x40 MLOAD DUP1 PUSH1 0xC0 ADD PUSH1 0x40 MSTORE DUP1 PUSH1 0x60 DUP2 MSTORE PUSH1 0x20 ADD PUSH1 0x60 DUP2 MSTORE PUSH1 0x20 ADD PUSH1 0x0 DUP1 NOT AND DUP2 MSTORE PUSH1 0x20 ADD PUSH1 0x0 DUP1 NOT AND DUP2 MSTORE PUSH1 0x20 ADD PUSH1 0x0 DUP1 NOT AND DUP2 MSTORE PUSH1 0x20 ADD PUSH1 0x0 ISZERO ISZERO DUP2 MSTORE POP SWAP1 JUMP JUMPDEST DUP3 DUP1 SLOAD PUSH2 0x440 SWAP1 PUSH2 0x8A6 JUMP JUMPDEST SWAP1 PUSH1 0x0 MSTORE PUSH1 0x20 PUSH1 0x0 KECCAK256 SWAP1 PUSH1 0x1F ADD PUSH1 0x20 SWAP1 DIV DUP2 ADD SWAP3 DUP3 PUSH2 0x462 JUMPI PUSH1 0x0 DUP6 SSTORE PUSH2 0x4A9 JUMP JUMPDEST DUP3 PUSH1 0x1F LT PUSH2 0x47B JUMPI DUP1 MLOAD PUSH1 0xFF NOT AND DUP4 DUP1 ADD OR DUP6 SSTORE PUSH2 0x4A9 JUMP JUMPDEST DUP3 DUP1 ADD PUSH1 0x1 ADD DUP6 SSTORE DUP3 ISZERO PUSH2 0x4A9 JUMPI SWAP2 DUP3 ADD JUMPDEST DUP3 DUP2 GT ISZERO PUSH2 0x4A8 JUMPI DUP3 MLOAD DUP3 SSTORE SWAP2 PUSH1 0x20 ADD SWAP2 SWAP1 PUSH1 0x1 ADD SWAP1 PUSH2 0x48D JUMP JUMPDEST JUMPDEST POP SWAP1 POP PUSH2 0x4B6 SWAP2 SWAP1 PUSH2 0x4BA JUMP JUMPDEST POP SWAP1 JUMP JUMPDEST JUMPDEST DUP1 DUP3 GT ISZERO PUSH2 0x4D3 JUMPI PUSH1 0x0 DUP2 PUSH1 0x0 SWAP1 SSTORE POP PUSH1 0x1 ADD PUSH2 0x4BB JUMP JUMPDEST POP SWAP1 JUMP JUMPDEST PUSH1 0x0 PUSH2 0x4EA PUSH2 0x4E5 DUP5 PUSH2 0x7E6 JUMP JUMPDEST PUSH2 0x7C1 JUMP JUMPDEST SWAP1 POP DUP3 DUP2 MSTORE PUSH1 0x20 DUP2 ADD DUP5 DUP5 DUP5 ADD GT ISZERO PUSH2 0x502 JUMPI PUSH1 0x0 DUP1 REVERT JUMPDEST PUSH2 0x50D DUP5 DUP3 DUP6 PUSH2 0x864 JUMP JUMPDEST POP SWAP4 SWAP3 POP POP POP JUMP JUMPDEST PUSH1 0x0 DUP2 CALLDATALOAD SWAP1 POP PUSH2 0x524 DUP2 PUSH2 0x9A1 JUMP JUMPDEST SWAP3 SWAP2 POP POP JUMP JUMPDEST PUSH1 0x0 DUP3 PUSH1 0x1F DUP4 ADD SLT PUSH2 0x53B JUMPI PUSH1 0x0 DUP1 REVERT JUMPDEST DUP2 CALLDATALOAD PUSH2 0x54B DUP5 DUP3 PUSH1 0x20 DUP7 ADD PUSH2 0x4D7 JUMP JUMPDEST SWAP2 POP POP SWAP3 SWAP2 POP POP JUMP JUMPDEST PUSH1 0x0 DUP2 CALLDATALOAD SWAP1 POP PUSH2 0x563 DUP2 PUSH2 0x9B8 JUMP JUMPDEST SWAP3 SWAP2 POP POP JUMP JUMPDEST PUSH1 0x0 PUSH1 0x20 DUP3 DUP5 SUB SLT ISZERO PUSH2 0x57B JUMPI PUSH1 0x0 DUP1 REVERT JUMPDEST PUSH1 0x0 PUSH2 0x589 DUP5 DUP3 DUP6 ADD PUSH2 0x554 JUMP JUMPDEST SWAP2 POP POP SWAP3 SWAP2 POP POP JUMP JUMPDEST PUSH1 0x0 DUP1 PUSH1 0x0 DUP1 PUSH1 0x0 DUP1 PUSH1 0xC0 DUP8 DUP10 SUB SLT ISZERO PUSH2 0x5AB JUMPI PUSH1 0x0 DUP1 REVERT JUMPDEST PUSH1 0x0 PUSH2 0x5B9 DUP10 DUP3 DUP11 ADD PUSH2 0x554 JUMP JUMPDEST SWAP7 POP POP PUSH1 0x20 DUP8 ADD CALLDATALOAD PUSH8 0xFFFFFFFFFFFFFFFF DUP2 GT ISZERO PUSH2 0x5D6 JUMPI PUSH1 0x0 DUP1 REVERT JUMPDEST PUSH2 0x5E2 DUP10 DUP3 DUP11 ADD PUSH2 0x52A JUMP JUMPDEST SWAP6 POP POP PUSH1 0x40 DUP8 ADD CALLDATALOAD PUSH8 0xFFFFFFFFFFFFFFFF DUP2 GT ISZERO PUSH2 0x5FF JUMPI PUSH1 0x0 DUP1 REVERT JUMPDEST PUSH2 0x60B DUP10 DUP3 DUP11 ADD PUSH2 0x52A JUMP JUMPDEST SWAP5 POP POP PUSH1 0x60 PUSH2 0x61C DUP10 DUP3 DUP11 ADD PUSH2 0x515 JUMP JUMPDEST SWAP4 POP POP PUSH1 0x80 PUSH2 0x62D DUP10 DUP3 DUP11 ADD PUSH2 0x515 JUMP JUMPDEST SWAP3 POP POP PUSH1 0xA0 PUSH2 0x63E DUP10 DUP3 DUP11 ADD PUSH2 0x515 JUMP JUMPDEST SWAP2 POP POP SWAP3 SWAP6 POP SWAP3 SWAP6 POP SWAP3 SWAP6 JUMP JUMPDEST PUSH2 0x654 DUP2 PUSH2 0x844 JUMP JUMPDEST DUP3 MSTORE POP POP JUMP JUMPDEST PUSH2 0x663 DUP2 PUSH2 0x850 JUMP JUMPDEST DUP3 MSTORE POP POP JUMP JUMPDEST PUSH1 0x0 PUSH2 0x674 DUP3 PUSH2 0x817 JUMP JUMPDEST PUSH2 0x67E DUP2 DUP6 PUSH2 0x822 JUMP JUMPDEST SWAP4 POP PUSH2 0x68E DUP2 DUP6 PUSH1 0x20 DUP7 ADD PUSH2 0x873 JUMP JUMPDEST PUSH2 0x697 DUP2 PUSH2 0x967 JUMP JUMPDEST DUP5 ADD SWAP2 POP POP SWAP3 SWAP2 POP POP JUMP JUMPDEST PUSH1 0x0 PUSH2 0x6AF PUSH1 0x1B DUP4 PUSH2 0x833 JUMP JUMPDEST SWAP2 POP PUSH2 0x6BA DUP3 PUSH2 0x978 JUMP JUMPDEST PUSH1 0x20 DUP3 ADD SWAP1 POP SWAP2 SWAP1 POP JUMP JUMPDEST PUSH1 0x0 PUSH1 0xC0 DUP4 ADD PUSH1 0x0 DUP4 ADD MLOAD DUP5 DUP3 SUB PUSH1 0x0 DUP7 ADD MSTORE PUSH2 0x6E2 DUP3 DUP3 PUSH2 0x669 JUMP JUMPDEST SWAP2 POP POP PUSH1 0x20 DUP4 ADD MLOAD DUP5 DUP3 SUB PUSH1 0x20 DUP7 ADD MSTORE PUSH2 0x6FC DUP3 DUP3 PUSH2 0x669 JUMP JUMPDEST SWAP2 POP POP PUSH1 0x40 DUP4 ADD MLOAD PUSH2 0x711 PUSH1 0x40 DUP7 ADD DUP3 PUSH2 0x65A JUMP JUMPDEST POP PUSH1 0x60 DUP4 ADD MLOAD PUSH2 0x724 PUSH1 0x60 DUP7 ADD DUP3 PUSH2 0x65A JUMP JUMPDEST POP PUSH1 0x80 DUP4 ADD MLOAD PUSH2 0x737 PUSH1 0x80 DUP7 ADD DUP3 PUSH2 0x65A JUMP JUMPDEST POP PUSH1 0xA0 DUP4 ADD MLOAD PUSH2 0x74A PUSH1 0xA0 DUP7 ADD DUP3 PUSH2 0x64B JUMP JUMPDEST POP DUP1 SWAP2 POP POP SWAP3 SWAP2 POP POP JUMP JUMPDEST PUSH2 0x75E DUP2 PUSH2 0x85A JUMP JUMPDEST DUP3 MSTORE POP POP JUMP JUMPDEST PUSH1 0x0 PUSH1 0x20 DUP3 ADD SWAP1 POP DUP2 DUP2 SUB PUSH1 0x0 DUP4 ADD MSTORE PUSH2 0x77D DUP2 PUSH2 0x6A2 JUMP JUMPDEST SWAP1 POP SWAP2 SWAP1 POP JUMP JUMPDEST PUSH1 0x0 PUSH1 0x20 DUP3 ADD SWAP1 POP DUP2 DUP2 SUB PUSH1 0x0 DUP4 ADD MSTORE PUSH2 0x79E DUP2 DUP5 PUSH2 0x6C5 JUMP JUMPDEST SWAP1 POP SWAP3 SWAP2 POP POP JUMP JUMPDEST PUSH1 0x0 PUSH1 0x20 DUP3 ADD SWAP1 POP PUSH2 0x7BB PUSH1 0x0 DUP4 ADD DUP5 PUSH2 0x755 JUMP JUMPDEST SWAP3 SWAP2 POP POP JUMP JUMPDEST PUSH1 0x0 PUSH2 0x7CB PUSH2 0x7DC JUMP JUMPDEST SWAP1 POP PUSH2 0x7D7 DUP3 DUP3 PUSH2 0x8D8 JUMP JUMPDEST SWAP2 SWAP1 POP JUMP JUMPDEST PUSH1 0x0 PUSH1 0x40 MLOAD SWAP1 POP SWAP1 JUMP JUMPDEST PUSH1 0x0 PUSH8 0xFFFFFFFFFFFFFFFF DUP3 GT ISZERO PUSH2 0x801 JUMPI PUSH2 0x800 PUSH2 0x938 JUMP JUMPDEST JUMPDEST PUSH2 0x80A DUP3 PUSH2 0x967 JUMP JUMPDEST SWAP1 POP PUSH1 0x20 DUP2 ADD SWAP1 POP SWAP2 SWAP1 POP JUMP JUMPDEST PUSH1 0x0 DUP2 MLOAD SWAP1 POP SWAP2 SWAP1 POP JUMP JUMPDEST PUSH1 0x0 DUP3 DUP3 MSTORE PUSH1 0x20 DUP3 ADD SWAP1 POP SWAP3 SWAP2 POP POP JUMP JUMPDEST PUSH1 0x0 DUP3 DUP3 MSTORE PUSH1 0x20 DUP3 ADD SWAP1 POP SWAP3 SWAP2 POP POP JUMP JUMPDEST PUSH1 0x0 DUP2 ISZERO ISZERO SWAP1 POP SWAP2 SWAP1 POP JUMP JUMPDEST PUSH1 0x0 DUP2 SWAP1 POP SWAP2 SWAP1 POP JUMP JUMPDEST PUSH1 0x0 DUP2 SWAP1 POP SWAP2 SWAP1 POP JUMP JUMPDEST DUP3 DUP2 DUP4 CALLDATACOPY PUSH1 0x0 DUP4 DUP4 ADD MSTORE POP POP POP JUMP JUMPDEST PUSH1 0x0 JUMPDEST DUP4 DUP2 LT ISZERO PUSH2 0x891 JUMPI DUP1 DUP3 ADD MLOAD DUP2 DUP5 ADD MSTORE PUSH1 0x20 DUP2 ADD SWAP1 POP PUSH2 0x876 JUMP JUMPDEST DUP4 DUP2 GT ISZERO PUSH2 0x8A0 JUMPI PUSH1 0x0 DUP5 DUP5 ADD MSTORE JUMPDEST POP POP POP POP JUMP JUMPDEST PUSH1 0x0 PUSH1 0x2 DUP3 DIV SWAP1 POP PUSH1 0x1 DUP3 AND DUP1 PUSH2 0x8BE JUMPI PUSH1 0x7F DUP3 AND SWAP2 POP JUMPDEST PUSH1 0x20 DUP3 LT DUP2 EQ ISZERO PUSH2 0x8D2 JUMPI PUSH2 0x8D1 PUSH2 0x909 JUMP JUMPDEST JUMPDEST POP SWAP2 SWAP1 POP JUMP JUMPDEST PUSH2 0x8E1 DUP3 PUSH2 0x967 JUMP JUMPDEST DUP2 ADD DUP2 DUP2 LT PUSH8 0xFFFFFFFFFFFFFFFF DUP3 GT OR ISZERO PUSH2 0x900 JUMPI PUSH2 0x8FF PUSH2 0x938 JUMP JUMPDEST JUMPDEST DUP1 PUSH1 0x40 MSTORE POP POP POP JUMP JUMPDEST PUSH32 0x4E487B7100000000000000000000000000000000000000000000000000000000 PUSH1 0x0 MSTORE PUSH1 0x22 PUSH1 0x4 MSTORE PUSH1 0x24 PUSH1 0x0 REVERT JUMPDEST PUSH32 0x4E487B7100000000000000000000000000000000000000000000000000000000 PUSH1 0x0 MSTORE PUSH1 0x41 PUSH1 0x4 MSTORE PUSH1 0x24 PUSH1 0x0 REVERT JUMPDEST PUSH1 0x0 PUSH1 0x1F NOT PUSH1 0x1F DUP4 ADD AND SWAP1 POP SWAP2 SWAP1 POP JUMP JUMPDEST PUSH32 0x42752069736C656D206963696E207965746B696E697A20796F6B2E0000000000 PUSH1 0x0 DUP3 ADD MSTORE POP JUMP JUMPDEST PUSH2 0x9AA DUP2 PUSH2 0x850 JUMP JUMPDEST DUP2 EQ PUSH2 0x9B5 JUMPI PUSH1 0x0 DUP1 REVERT JUMPDEST POP JUMP JUMPDEST PUSH2 0x9C1 DUP2 PUSH2 0x85A JUMP JUMPDEST DUP2 EQ PUSH2 0x9CC JUMPI PUSH1 0x0 DUP1 REVERT JUMPDEST POP JUMP INVALID LOG2 PUSH5 0x6970667358 0x22 SLT KECCAK256 DUP12 0xDE EXTCODESIZE PC 0xD0 0xC1 PUSH18 0x6CCC33CFCD2BA36330E8150DDE5927292738 PUSH10 0x337D992ECFC164736F6C PUSH4 0x43000804 STOP CALLER "
				},
				"gasEstimates": {
					"creation": {
						"codeDepositCost": "513000",
						"executionCost": "21415",
						"totalCost": "534415"
					},
					"external": {
						"getMapVeriler(uint256)": "infinite",
						"getMapVerilerCount()": "1145",
						"setMapVeriler(uint256,string,string,bytes32,bytes32,bytes32)": "infinite"
					}
				},
				"methodIdentifiers": {
					"getMapVeriler(uint256)": "04438f0b",
					"getMapVerilerCount()": "4ae8ac57",
					"setMapVeriler(uint256,string,string,bytes32,bytes32,bytes32)": "51d1d5f5"
				}
			},
			"storageLayout": {
				"storage": [
					{
						"astId": 16,
						"contract": "contract.sol:Compare",
						"label": "owner",
						"offset": 0,
						"slot": "0",
						"type": "t_address"
					},
					{
						"astId": 19,
						"contract": "contract.sol:Compare",
						"label": "verilerList",
						"offset": 0,
						"slot": "1",
						"type": "t_array(t_uint256)dyn_storage"
					},
					{
						"astId": 24,
						"contract": "contract.sol:Compare",
						"label": "mapVeriler",
						"offset": 0,
						"slot": "2",
						"type": "t_mapping(t_uint256,t_struct(veriler)14_storage)"
					}
				],
				"types": {
					"t_address": {
						"encoding": "inplace",
						"label": "address",
						"numberOfBytes": "20"
					},
					"t_array(t_uint256)dyn_storage": {
						"base": "t_uint256",
						"encoding": "dynamic_array",
						"label": "uint256[]",
						"numberOfBytes": "32"
					},
					"t_bool": {
						"encoding": "inplace",
						"label": "bool",
						"numberOfBytes": "1"
					},
					"t_bytes32": {
						"encoding": "inplace",
						"label": "bytes32",
						"numberOfBytes": "32"
					},
					"t_mapping(t_uint256,t_struct(veriler)14_storage)": {
						"encoding": "mapping",
						"key": "t_uint256",
						"label": "mapping(uint256 => struct Compare.veriler)",
						"numberOfBytes": "32",
						"value": "t_struct(veriler)14_storage"
					},
					"t_string_storage": {
						"encoding": "bytes",
						"label": "string",
						"numberOfBytes": "32"
					},
					"t_struct(veriler)14_storage": {
						"encoding": "inplace",
						"label": "struct Compare.veriler",
						"members": [
							{
								"astId": 3,
								"contract": "contract.sol:Compare",
								"label": "alici",
								"offset": 0,
								"slot": "0",
								"type": "t_string_storage"
							},
							{
								"astId": 5,
								"contract": "contract.sol:Compare",
								"label": "verici",
								"offset": 0,
								"slot": "1",
								"type": "t_string_storage"
							},
							{
								"astId": 7,
								"contract": "contract.sol:Compare",
								"label": "aliciSha256",
								"offset": 0,
								"slot": "2",
								"type": "t_bytes32"
							},
							{
								"astId": 9,
								"contract": "contract.sol:Compare",
								"label": "vericiSha256",
								"offset": 0,
								"slot": "3",
								"type": "t_bytes32"
							},
							{
								"astId": 11,
								"contract": "contract.sol:Compare",
								"label": "eFaturaSha256",
								"offset": 0,
								"slot": "4",
								"type": "t_bytes32"
							},
							{
								"astId": 13,
								"contract": "contract.sol:Compare",
								"label": "valid",
								"offset": 0,
								"slot": "5",
								"type": "t_bool"
							}
						],
						"numberOfBytes": "192"
					},
					"t_uint256": {
						"encoding": "inplace",
						"label": "uint256",
						"numberOfBytes": "32"
					}
				}
			},
			"userdoc": {
				"kind": "user",
				"methods": {},
				"version": 1
			}
		}
	}
}